:1000000072C000009EC000009CC000009AC00000AA
:1000100098C0000096C0000094C0000092C000008C
:1000200090C000008EC000008CC000008AC000009C
:1000300088C0000086C0000084C0000082C00000AC
:1000400080C000007EC000007CC000007AC00000BC
:1000500078C0000076C0000074C0000081C20000BB
:1000600070C00000F0C20000C5C200006AC00000FD
:1000700068C0000066C0000064C0000062C00000EC
:1000800060C000005EC000005CC000005AC00000FC
:1000900058C0000056C0000054C0000052C000000C
:1000A00050C000004EC000004CC000004AC000001C
:1000B00048C0000046C0000044C0000042C000002C
:1000C00040C000003EC000003CC000003AC000003C
:1000D00038C0000036C0000034C0000032C000004C
:1000E00030C000006A0511241FBECFEFD1E2DEBF91
:1000F000CDBF00E00CBF12E0A0E0B2E0ECE9FEE012
:1001000000E00BBF02C007900D92A439B107D9F7E8
:1001100023E0A4E9B2E001C01D92AA33B207E1F7DF
:1001200010E0C3E7D0E000E005C021970109802F6F
:10013000FE01A6D6C237D10780E00807B1F7B9D2D1
:10014000ABC65ECF863308F0865390917B00282F94
:100150002870977F922B90937B00877080648093A8
:100160007C0080917A00806480937A0080917A008C
:1001700086FDFCCF809178002091790090E0922B51
:1001800008953FB7F8948091990290919A02A091B6
:100190009B02B0919C0226B5A89B05C02F3F19F089
:1001A0000196A11DB11D3FBFBA2FA92F982F8827F7
:1001B000820F911DA11DB11DBC01CD0142E0660F52
:1001C000771F881F991F4A95D1F70895CF92DF9224
:1001D000EF92FF920F931F93CF93DF936C017A01FD
:1001E0008B01C0E0D0E0CE15DF0581F0D8016D9124
:1001F0008D01D601ED91FC910190F081E02DC601B9
:100200001995892B11F02196EECF7E01C701DF9160
:10021000CF911F910F91FF90EF90DF90CF900895B5
:10022000089580E090E00895FC01538D448D252FC2
:1002300030E0842F90E0821B930B541710F0CF9680
:10024000089501970895FC01918D828D981761F0B2
:10025000828DDF01A80FB11D5D968C91928D9F5FFD
:100260009F73928F90E008958FEF9FEF0895FC01A8
:10027000918D828D981731F0828DE80FF11D858D5B
:1002800090E008958FEF9FEF0895FC01918D228DEE
:10029000892F90E0805C9F4F821B91098F73992773
:1002A00008958DE992E0F1DF21E0892B09F420E047
:1002B000822F0895FC01848DDF01A80FB11DA35A80
:1002C000BF4F2C91848D90E001968F739927848F76
:1002D000A689B7892C93A089B1898C918370806499
:1002E0008C93938D848D981306C00288F389E02D3A
:1002F00080818F7D80830895EF92FF920F931F93EB
:10030000CF93DF93EC0181E0888F9B8D8C8D9813C8
:1003100005C0E889F989808185FD25C0F62E0B8D01
:1003200010E00F5F1F4F0F731127E02E8C8DE81226
:100330000BC00FB607FCFACFE889F989808185FFE9
:10034000F5CFCE01B7DFF2CF8B8DFE01E80FF11DA7
:10035000E35AFF4FF0829FB7F8940B8FEA89FB892D
:10036000808180620AC09FB7F894EE89FF8960831C
:10037000E889F98980818370806480839FBF81E0F0
:1003800090E0DF91CF911F910F91FF90EF90089532
:10039000CF93DF93EC01888D8823C1F0EA89FB8934
:1003A000808185FD05C0A889B9898C9186FD0EC024
:1003B0000FB607FCF5CF808185FFF2CFA889B989F8
:1003C0008C9185FFEDCFCE0175DFE8CFDF91CF9126
:1003D000089580E090E0892B19F063DF811125C03A
:1003E00080E090E0892B41F080E090E0892B21F0C3
:1003F0000E94000081111CC080E090E0892B41F038
:1004000080E090E0892B21F00E940000811113C050
:1004100080E090E0892BA1F080E090E0892B81F0D2
:100420000E94000081110AC008950E940000D8CFE8
:100430000E940000E1CF0E940000EACF0C9400006F
:100440000895009761F0FC0101900020E9F73197D1
:10045000AF01481B590BBC018DE992E0B7CE80E09B
:1004600090E0089515D58F929F92AF92BF92CF9250
:10047000DF92EF92FF920F931F93CF93DF93CDB74D
:10048000DEB7AD970FB6F894DEBF0FBECDBFEAA2C0
:10049000FBA22EA33FA38AA19BA1D3DF82E592E01A
:1004A000D0DFCEA0DFA00D2C000CEE08FF08F7FE79
:1004B00023C06DE28DE992E01FDF22273327A901D7
:1004C0002C193D094E095F0919A2CE0181967C01C4
:1004D0009AE0892E912CA12CB12CCA01B901A50159
:1004E0009401ACD4605DF70162937F012115310561
:1004F0004105510591F719C0A701960119A2CE0136
:1005000081967C018AE0882E912CA12CB12CCA0105
:10051000B901A501940192D4605DF70162937F0156
:10052000211531054105510591F7C7018ADF85E5A0
:1005300092E087DF8AE592E084DFAD960FB6F8940B
:10054000DEBF0FBECDBFDF91CF911F910F91FF9006
:10055000EF90DF90CF90BF90AF909F908F900895D5
:100560001F920F920FB60F9211242F933F938F93E8
:100570009F93AF93BF938091950290919602A09123
:100580009702B09198023091940223E0230F2D3707
:1005900020F40196A11DB11D05C026E8230F029687
:1005A000A11DB11D20939402809395029093960211
:1005B000A0939702B09398028091990290919A0229
:1005C000A0919B02B0919C020196A11DB11D809348
:1005D000990290939A02A0939B02B0939C02BF91C0
:1005E000AF919F918F913F912F910F900FBE0F90E0
:1005F0001F9018951F920F920FB60F9211240BB6F1
:100600000F922F933F934F935F936F937F938F93AB
:100610009F93AF93BF93EF93FF938DE992E04ADEF0
:10062000FF91EF91BF91AF919F918F917F916F91CA
:100630005F914F913F912F910F900BBE0F900FBE86
:100640000F901F9018951F920F920FB60F921124C2
:100650000BB60F922F938F939F93EF93FF93E0919D
:10066000AD02F091AE028081E091B302F091B4024C
:1006700082FD12C090818091B6028F5F8F732091AE
:10068000B702821751F0E091B602F0E0E356FD4F59
:10069000958F8093B60201C08081FF91EF919F9169
:1006A0008F912F910F900BBE0F900FBE0F901F9048
:1006B0001895789484B5826084BD84B5816084BDCA
:1006C00085B5826085BD85B5816085BD80916E00F0
:1006D000816080936E001092810080918100826021
:1006E000809381008091810081608093810080915E
:1006F00080008160809380008091B100846080934D
:10070000B1008091B00081608093B0008091910031
:10071000826080939100809191008160809391002C
:10072000809190008160809390008091A100826010
:100730008093A1008091A10081608093A1008091AD
:10074000A00081608093A00080912101826080934D
:1007500021018091210181608093210180912001FC
:1007600081608093200180917A00846080937A0078
:1007700080917A00826080937A0080917A00816013
:1007800080937A0080917A00806880937A0010923A
:10079000C100E091AD02F091AE0282E08083E09171
:1007A000A902F091AA021082E091AB02F091AC0292
:1007B0008FEC80831092B502E091B102F091B20209
:1007C00086E08083E091AF02F091B0028081806189
:1007D0008083E091AF02F091B002808188608083D5
:1007E000E091AF02F091B002808180688083E09157
:1007F000AF02F091B00280818F7D808380912402CE
:1008000090912502909327028093260280913402D2
:1008100090913502909337028093360280910402C2
:100820009091050290930702809306028091140232
:1008300090911502909317028093160280912202E4
:1008400081DCBC01990F880B990B09D22AE038E2B0
:1008500040EA5BE390D26093280270932902809370
:100860002A0290932B02809132026CDCBC01990F1A
:10087000880B990BF4D12AE038E240EA5BE37BD2A3
:10088000609338027093390280933A0290933B024E
:100890008091020257DCBC01990F880B990BDFD1C4
:1008A0002AE038E240EA5BE366D260930802709384
:1008B000090280930A0290930B028091120242DC9B
:1008C000BC01990F880B990BCAD12AE038E240EAA3
:1008D0005BE351D26B017C016093180270931902A3
:1008E00080931A0290931B0220E030E040E05FE327
:1008F000609128027091290280912A0290912B0226
:1009000016D120E030E048E452E435D275D1962E7D
:10091000709325026093240220E030E040E05FE322
:10092000609138027091390280913A0290913B02B5
:10093000FED020E030E048E452E41DD25DD1709357
:1009400035026093340220E030E040E05FE36091E4
:1009500008027091090280910A0290910B02E7D07F
:1009600020E030E048E452E406D246D1709305021C
:100970006093040220E030E040E05FE3C701B6018D
:10098000D6D020E030E048E452E4F5D135D1709380
:1009900015026093140284E1A82EB12C95E0C92EB3
:1009A000D12CE0902002F0902102009122021091BF
:1009B0002302292D309125024091260250912702D1
:1009C000609128027091290280912A0290912B0255
:1009D0004ADD26E9C22ED12CE0903002F09031029F
:1009E000009132021091330220913402309135028D
:1009F000409136025091370260913802709139026D
:100A000080913A0290913B022EDD3AEFA32EB12C59
:100A100045E0C42ED12CE0900002F090010200913C
:100A200002021091030220910402309105024091CC
:100A300006025091070260910802709109028091AC
:100A40000A0290910B020FDD56E9C52ED12CE090E1
:100A50001002F090110200911202109113022091E5
:100A600014023091150240911602509117026091C4
:100A700018027091190280911A0290911B02F3DC06
:100A80008AE592E0DEDC7DDB4B015C0168EEC62E80
:100A900063E0D62EE12CF12C74DBDC01CB0188194C
:100AA0009909AA09BB09883E9340A105B105A0F3A5
:100AB00021E0C21AD108E108F10888EE880E83E02F
:100AC000981EA11CB11CC114D104E104F10421F74A
:100AD00080DC94CEEDE9F2E01382128288EE93E09E
:100AE000A0E0B0E084839583A683B78384E492E09A
:100AF0009183808385EC90E09587848784EC90E0F7
:100B00009787868780EC90E0918B808B81EC90E0DA
:100B1000938B828B82EC90E0958B848B86EC90E0BB
:100B2000978B868B118E128E138E148E08955058CB
:100B3000BB27AA270ED0E5C0D6D030F0DBD020F0FE
:100B400031F49F3F11F41EF4CBC00EF4E095E7FBA7
:100B5000C1C0E92FE7D080F3BA1762077307840793
:100B6000950718F071F49EF5FFC00EF4E0950B2E7A
:100B7000BA2FA02D0B01B90190010C01CA01A001EF
:100B80001124FF27591B99F0593F50F4503E68F14A
:100B90001A16F040A22F232F342F4427585FF3CF8B
:100BA000469537952795A795F0405395C9F77EF45C
:100BB0001F16BA0B620B730B840BBAF09150A1F0A5
:100BC000FF0FBB1F661F771F881FC2F70EC0BA0F2B
:100BD000621F731F841F48F4879577956795B795B3
:100BE000F7959E3F08F0B3CF9395880F08F09927AB
:100BF000EE0F97958795089504D06894B111B5C00C
:100C0000089598D088F09F5790F0B92F9927B75141
:100C1000A0F0D1F0660F771F881F991F1AF0BA95C0
:100C2000C9F712C0B13081F09FD0B1E008959CC0E7
:100C3000672F782F8827B85F39F0B93FCCF38695B6
:100C400077956795B395D9F73EF490958095709513
:100C500061957F4F8F4F9F4F0895E89409C097FB90
:100C60003EF490958095709561957F4F8F4F9F4F83
:100C70009923A9F0F92F96E9BB279395F6958795C7
:100C800077956795B795F111F8CFFAF4BB0F11F48A
:100C900060FF1BC06F5F7F4F8F4F9F4F16C0882331
:100CA00011F096E911C0772321F09EE8872F762F67
:100CB00005C0662371F096E8862F70E060E02AF0A8
:100CC0009A95660F771F881FDAF7880F9695879594
:100CD00097F9089597F99F6780E870E060E00895BC
:100CE0009FEF80EC089500240A9416161706180644
:100CF0000906089500240A94121613061406050620
:100D00000895092E0394000C11F4882352F0BB0FB0
:100D100040F4BF2B11F460FF04C06F5F7F4F8F4F13
:100D20009F4F089557FD9058440F551F59F05F3F4E
:100D300071F04795880F97FB991F61F09F3F79F0FD
:100D400087950895121613061406551FF2CF46957F
:100D5000F1DF08C0161617061806991FF1CF869501
:100D60007105610508940895E894BB2766277727E5
:100D7000CB0197F908950BD0C4CFB5DF28F0BADFC7
:100D800018F0952309F0A6CFABCF1124EECFCADF20
:100D9000A0F3959FD1F3950F50E0551F629FF0018E
:100DA000729FBB27F00DB11D639FAA27F00DB11DE7
:100DB000AA1F649F6627B00DA11D661F829F222770
:100DC000B00DA11D621F739FB00DA11D621F839FF7
:100DD000A00D611D221F749F3327A00D611D231FCD
:100DE000849F600D211D822F762F6A2F11249F571B
:100DF00050408AF0E1F088234AF0EE0FFF1FBB1F3E
:100E0000661F771F881F91505040A9F79E3F5105DC
:100E100070F060CFAACF5F3FECF3983EDCF386958D
:100E200077956795B795F795E7959F5FC1F7FE2B87
:100E3000880F911D9695879597F90895A1E21A2E2E
:100E4000AA1BBB1BFD010DC0AA1FBB1FEE1FFF1F6E
:100E5000A217B307E407F50720F0A21BB30BE40BBE
:100E6000F50B661F771F881F991F1A9469F7609505
:100E70007095809590959B01AC01BD01CF010895BF
:100E8000EE0FFF1F881F8BBF0790F691E02D19947E
:0C0E900081E090E0F89400C0F894FFCFDF
:100E9C005D023800000000000000000005000600A4
:100EAC006902390000000000000000000700080083
:100EBC007702360000000000000000000100020074
:100ECC008402370000000000000000000300040052
:100EDC00000000007C01E6001401C801450123015B
:100EEC0037013A200020707369000D0A00447269C2
:100EFC00766572205265617200506173656E67652C
:100F0C007220526561720044726976657220467275
:100F1C006F6E740050617373656E676572204672F4
:040F2C006F6E740070
:00000001FF
