:1000000007C1000036C1000034C1000032C1000049
:1000100030C100002EC100002CC100002AC1000028
:1000200028C1000026C1000024C1000022C1000038
:1000300020C100001EC100001CC100001AC1000048
:1000400018C1000016C1000014C1000012C1000058
:1000500010C100000EC100000CC10000DEC4000091
:1000600008C100004DC5000022C5000002C100000B
:1000700000C10000FEC00000FCC00000FAC000008B
:10008000F8C00000F6C00000F4C00000F2C000009C
:10009000F0C00000EEC00000ECC0000067C500002A
:1000A000E8C00000E6C00000E4C00000E2C00000BC
:1000B000E0C00000DEC00000DCC00000DAC00000CC
:1000C000D8C00000D6C00000D4C00000D2C00000DC
:1000D000D0C00000CEC00000CCC00000CAC00000EC
:1000E000C8C0000013081608050809080D084D08C7
:1000F0001A081E08240828082C08320836083A086E
:100100004D0840084408480800002100240027004A
:100110002A002D0030003300010100000401070116
:100120000A0100002200250028002B002E003100CB
:10013000340002010000050108010B010505050559
:10014000070508080808020202020A0A080804044F
:10015000040401010101010101010303030303037D
:100160000303040707070C0C0C0C0C0C0C0C02020C
:10017000020206060606060606060B0B0B0B0B0B09
:100180000B0B010210202008081020401020408096
:10019000020102010804020101020408102040804B
:1001A00080402010080402018004020180402010D9
:1001B0000804020108040201010204081020408022
:1001C000010204081020408000000A0B02090C0DF7
:1001D0000E080703040100000000000000000000FA
:1001E000000000000000000000000000000000000F
:1001F00000000000121110000000000000000000CC
:100200000000000000000000000000000000100DD1
:1002100011241FBECFEFD1E2DEBFCDBF00E00CBF87
:1002200012E0A0E0B2E0E8EBFEE100E00BBF02C0AC
:1002300007900D92A43FB107D9F724E0A4EFB2E0F4
:1002400001C01D92AE32B207E1F711E0C8E0D1E083
:1002500000E006C021970109802FFE010E944E0F89
:10026000C730D10780E00807A9F70E94870A0C94DD
:100270005A0FC6CECF92DF92EF92FF920F931F9349
:10028000CF93DF936C017A018B01C0E0D0E0CE15F3
:10029000DF0581F0D8016D918D01D601ED91FC91C2
:1002A0000190F081E02DC6011995892B11F021965E
:1002B000EECF7E01C701DF91CF911F910F91FF908B
:1002C000EF90DF90CF900895FC01538D448D252F42
:1002D00030E0842F90E0821B930B541710F0CF96E0
:1002E000089501970895FC01918D828D981761F012
:1002F000828DDF01A80FB11D5D968C91928D9F5F5D
:100300009F73928F90E008958FEF9FEF0895FC0107
:10031000918D828D981731F0828DE80FF11D858DBA
:1003200090E008958FEF9FEF0895FC01918D228D4D
:10033000892F90E0805C9F4F821B91098F739927D2
:1003400008958AE693E0F1DF21E0892B09F420E0AB
:10035000822F0895FC01848DDF01A80FB11DA35ADF
:10036000BF4F2C91848D90E001968F739927848FD5
:10037000A689B7892C93A089B1898C9183708064F8
:100380008C93938D848D981306C00288F389E02D99
:1003900080818F7D80830895EF92FF920F931F934A
:1003A000CF93DF93EC0181E0888F9B8D8C8D981328
:1003B00005C0E889F989808185FD25C0F62E0B8D61
:1003C00010E00F5F1F4F0F731127E02E8C8DE81286
:1003D0000BC00FB607FCFACFE889F989808185FF49
:1003E000F5CFCE01B7DFF2CF8B8DFE01E80FF11D07
:1003F000E35AFF4FF0829FB7F8940B8FEA89FB898D
:10040000808180620AC09FB7F894EE89FF8960837B
:10041000E889F98980818370806480839FBF81E04F
:1004200090E0DF91CF911F910F91FF90EF90089591
:10043000CF93DF93EC01888D8823C1F0EA89FB8993
:10044000808185FD05C0A889B9898C9186FD0EC083
:100450000FB607FCF5CF808185FFF2CFA889B98957
:100460008C9185FFEDCFCE0175DFE8CFDF91CF9185
:10047000089580E090E0892B19F063DF811125C099
:1004800080E090E0892B41F080E090E0892B21F022
:100490000E94000081111CC080E090E0892B41F097
:1004A00080E090E0892B21F00E940000811113C0B0
:1004B00080E090E0892BA1F080E090E0892B81F032
:1004C0000E94000081110AC008950E940000D8CF48
:1004D0000E940000E1CF0E940000EACF0C940000CF
:1004E000089585ED8093BC008091BC0084FDFCCF15
:1004F00010923903089540911503262F30E0240F00
:10050000311D21323105DCF4209139032430C9F446
:10051000FC0180E090E0861758F43091150321919A
:10052000DC01AB50BD4FA30FB11D2C930196F3CF4F
:1005300080911503680F6093150380E0089581E0B2
:10054000089582E0089508958FEF9FEF08958FEF4B
:100550009FEF08958091F40290E091958195910923
:100560000895CF93DF93CB01EA01642FC4DFCE015E
:10057000DF91CF910895CF93DF931F92CDB7DEB770
:10058000698361E0CE010196B6DF81E090E00F90D3
:10059000DF91CF910895089580E090E008950E9442
:1005A000560F4F925F926F927F92AF92BF92CF920F
:1005B000DF92EF92FF920F931F93CF93DF93CDB70C
:1005C000DEB760970FB6F894DEBF0FBECDBFED82E9
:1005D000FE820F83188729873A874B875C876D8750
:1005E0007E878F87988B49845A844AE08E010F5FFB
:1005F0001F4FB801C2010E94720D8D819E8189D466
:1006000080E792E086D4052C000C6608770877FE18
:100610000DC06DE28AE693E0BFDE66277727CB0147
:1006200064197509860997094AE003C04AE0C301C5
:10063000B2018CD483E792E07DD46CE07FEF8FEF42
:100640009FEF1FD6C501BB0CAA0BBB0BBC015527E6
:100650004427C601A0E0B0E06A017B01C82AD92A7C
:10066000EA2AFB2AC701B6010CD66DE170E080E0F2
:1006700096E007D6F80101900020E9F72F01401A13
:10068000510A612C712C80910A04811107C068D530
:10069000B301A201C80110D63FD504C0B301A20125
:1006A000C8010AD660960FB6F894DEBF0FBECDBF64
:1006B000DF91CF911F910F91FF90EF90DF90CF903E
:1006C000BF90AF907F906F905F904F900895AF92E2
:1006D000BF92CF92DF92EF92FF920F931F93809180
:1006E0002402909125029093270280932602809104
:1006F00034029091350290933702809336028091B4
:100700000402909105029093070280930602809163
:100710001402909115029093170280931602809113
:100720002202D6D6BC01990F880B990B0E943D0E70
:100730002AE038E240EA5BE30E94C90E6093280297
:100740007093290280932A0290932B0280913202A7
:10075000BFD6BC01990F880B990B0E943D0E2AE071
:1007600038E240EA5BE30E94C90E6093380270935E
:10077000390280933A0290933B0280910202A8D6FC
:10078000BC01990F880B990B0E943D0E2AE038E2BC
:1007900040EA5BE30E94C90E60930802709309026D
:1007A00080930A0290930B028091120291D6BC01B1
:1007B000990F880B990B0E943D0E2AE038E240EA1F
:1007C0005BE30E94C90E6B017C0160931802709379
:1007D000190280931A0290931B0220E030E040E05F
:1007E0005FE3609128027091290280912A02909122
:1007F0002B020E94A50D20E030E048E452E40E9464
:10080000C90E0E940A0E709325026093240220E014
:1008100030E040E05FE360913802709139028091EE
:100820003A0290913B020E94A50D20E030E048E49E
:1008300052E40E94C90E0E940A0E70933502609322
:10084000340220E030E040E05FE360910802709104
:10085000090280910A0290910B020E94A50D20E0EE
:1008600030E048E452E40E94C90E0E940A0E7093E0
:1008700005026093040220E030E040E05FE3C7013E
:10088000B6010E94A50D20E030E048E452E40E9449
:10089000C90E0E940A0E709315026093140260E064
:1008A0007FEF8FEF9FEFEDD467E070E080E096E29E
:1008B000E8D460E070E08DE392E0E3D467E070E0BC
:1008C00080E096E2DED460E070E081EA94E0D9D482
:1008D00084E1A82EB12C94E1C92ED12CE090200205
:1008E000F090210200912202109123022091240213
:1008F00030912502409126025091270260912802F2
:100900007091290280912A0290912B024ADE22ECFA
:10091000C22EDD24D394E0903002F0903102009199
:10092000320210913302209134023091350240910D
:1009300036025091370260913802709139028091ED
:100940003A0290913B022DDE3AEFA32EB12C44E106
:10095000C42ED12CE0900002F0900102009102021E
:100960001091030220910402309105024091060289
:1009700050910702609108027091090280910A0269
:1009800090910B020EDE52ECC52EDD24D394E09044
:100990001002F090110200911202109113022091A6
:1009A0001402309115024091160250911702609185
:1009B00018027091190280911A0290911B02F1DDC8
:1009C00088E792E0A6D260E070E0CB015AD461E003
:1009D0007FEF8FEF9FEF55D480910A0481119CD354
:1009E000409113045091140468EE74E280E190E0A9
:1009F00085D378D220911304309114048217930781
:100A000019F08F3F9F40A9F71F910F91FF90EF9032
:100A1000DF90CF90BF90AF9008951F920F920FB6C6
:100A20000F9211242F933F938F939F93AF93BF9374
:100A30008091620390916303A0916403B091650378
:100A40003091610323E0230F2D3720F40196A11D7F
:100A5000B11D05C026E8230F0296A11DB11D2093EC
:100A600061038093620390936303A0936403B09344
:100A700065038091660390916703A0916803B0912C
:100A800069030196A11DB11D8093660390936703CE
:100A9000A0936803B0936903BF91AF919F918F9129
:100AA0003F912F910F900FBE0F901F9018951F929E
:100AB0000F920FB60F9211240BB60F922F933F9304
:100AC0004F935F936F937F938F939F93AF93BF9356
:100AD000EF93FF938AE693E03DDCFF91EF91BF91A6
:100AE000AF919F918F917F916F915F914F913F91C6
:100AF0002F910F900BBE0F900FBE0F901F90189567
:100B00001F920F920FB60F9211240BB60F922F93D4
:100B10008F939F93EF93FF93E0917A03F0917B0380
:100B20008081E0918003F091810382FD12C0908169
:100B3000809183038F5F8F7320918403821751F01C
:100B4000E0918303F0E0E659FC4F958F8093830397
:100B500001C08081FF91EF919F918F912F910F9014
:100B60000BBE0F900FBE0F901F9018951F920F9203
:100B70000FB60F9211240BB60F922F933F934F9302
:100B80005F936F937F938F939F93AF93BF93EF93F5
:100B9000FF938091B900887F803609F49CC068F586
:100BA000883209F45BC090F4803109F454C038F401
:100BB000882309F4F2C0883009F44DC0F1C08831AF
:100BC00009F44CC0803209F45DC0EAC0803409F4F5
:100BD00068C048F4803309F455C0883309F0E0C098
:100BE00080933803D4C0803509F44FC0883509F4A8
:100BF0005DC0883409F0D4C0D2C0883909F4C3C0BC
:100C0000A8F4883709F467C038F4883609F463C05B
:100C1000803709F460C0C4C0883809F4B4C0803992
:100C200009F45FC0803809F0BBC05BC0803B09F4A9
:100C300084C038F4803A09F466C0883A09F47DC06B
:100C4000AFC0803C09F4A3C0883C09F4A0C0883B35
:100C500009F486C0A5C080915E0310C090915D0329
:100C600080915C03981770F5E0915D0381E08E0F31
:100C700080935D03F0E0E45CFC4F80818093BB00D7
:100C800085EC82C0809338038AC0E0915D0381E0E7
:100C90008E0F80935D038091BB00F0E0E45CFC4F1D
:100CA000808390915D0380915C036AC0E0915D0355
:100CB00081E08E0F80935D038091BB00F0E0E45CE7
:100CC000FC4F808380913B03811169C081E0809358
:100CD0003A0384EA5DC083E08093390310923703BE
:100CE000CFCF80913703803208F04DC0E0913703B9
:100CF00081E08E0F809337038091BB00F0E0E95EC6
:100D0000FC4F8083BDCF85EC8093BC0010923903EB
:100D100080913703803230F4E0913703F0E0E95EF0
:100D2000FC4F10826091370370E087E193E0E0E0D0
:100D3000F0E019951092370333C084E080933903B3
:100D40001092160310921503E0E0F0E019958091DF
:100D50001503811105C081E0809315031092F502FF
:100D6000E091160381E08E0F80931603F0E0EB50C4
:100D7000FD4F80818093BB009091160380911503F5
:100D8000981708F47DCF85E88093BC0009C085ECF6
:100D90008093BC001092390303C010923803A1DB8A
:100DA000FF91EF91BF91AF919F918F917F916F9143
:100DB0005F914F913F912F910F900BBE0F900FBEFF
:100DC0000F901F90189561E0FC018081FEC08EBDE0
:100DD00000000DB407FEFDCF8EB508951F93CF938D
:100DE000DF93EA01162F60E0FC018081EED0812FB5
:100DF000EEDF8D2FECDF8C2FEADF80E0DF91CF91EB
:100E00001F91E5CF3FB7F8948091660390916703F7
:100E1000A0916803B091690326B5A89B05C02F3F38
:100E200019F00196A11DB11D3FBFBA2FA92F982F10
:100E30008827820F911DA11DB11DBC01CD0142E08B
:100E4000660F771F881F991F4A95D1F708958F92D3
:100E50009F92AF92BF92CF92DF92EF92FF92D2DF3A
:100E60004B015C0184E1C82ED12CE12CF12CCADFAE
:100E7000DC01CB0188199909AA09BB09883E934076
:100E8000A105B105A0F321E0C21AD108E108F108DB
:100E900088EE880E83E0981EA11CB11CC114D104F9
:100EA000E104F10421F7FF90EF90DF90CF90BF9025
:100EB000AF909F908F9008958CB58C7F8CBD8DB531
:100EC00081608DBD0895CF93AB01BC0187E094E0B4
:100ED00085DF80E07CDFC82F87E094E074DF8C2F13
:100EE000CF910895CF93DF9344EE54E260E170E038
:100EF00087E094E073DF80E06ADFD82F80E067DF6F
:100F0000C82F87E094E05FDF8D2F9C2FDF91CF917A
:100F10000895009761F0FC0101900020E9F73197F6
:100F2000AF01481B590BBC018AE693E0A3C980E0DE
:100F300090E00895CF93DF93ECDFEC0188E792E037
:100F4000E8DF8C0F9D1FDF91CF9108958F929F92C4
:100F5000AF92BF920F931F93CF93DF93CDB7DEB7BE
:100F6000A1970FB6F894DEBF0FBECDBF19A24230D5
:100F700008F44AE08E010F5D1F4F842E912CA12CA6
:100F8000B12CA501940168D7E62FB901CA0101501F
:100F90001109EA3014F4E05D01C0E95CD801EC937A
:100FA000232B242B252B69F7C801B3DFA1960FB69D
:100FB000F894DEBF0FBECDBFDF91CF911F910F918F
:100FC000BF90AF909F908F900895362F90E0FC01D6
:100FD000E853FE4F4491FC01EE57FE4F2491FC0173
:100FE000E45CFE4F9491992309F46BC0442309F407
:100FF00054C050E0FA013197E231F10508F04DC0DC
:101000008827EE58FF4F8F4F49C7809180008F7718
:1010100007C0809180008F7D03C080918000877F12
:10102000809380003AC084B58F7702C084B58F7DED
:1010300084BD33C08091B0008F7703C08091B00031
:101040008F7D8093B00029C0809190008F7707C07A
:10105000809190008F7D03C080919000877F809366
:1010600090001BC08091A0008F7707C08091A000E6
:101070008F7D03C08091A000877F8093A0000DC06A
:10108000809120018F7707C0809120018F7D03C060
:1010900080912001877F80932001E92FF0E0EE0FFF
:1010A000FF1FEE5DFE4FA591B4919FB7F8943111EB
:1010B00004C08C912095282302C0EC912E2B2C93F8
:1010C0009FBF08951F93CF93DF93EB01182F60E02C
:1010D000809107047ADF812F806879DE8D2F77DE9B
:1010E0008C2FDF91CF911F9172CECF93C42FEADF67
:1010F0008C2F6DDE87E094E0CF9165CECF93DF93A8
:10110000D42FC52FDFDF8D2F62DE8C2F60DE87E0CE
:1011100094E0DF91CF9157CECF92DF92EF92FF9282
:10112000CF93DF9387E094E04EDEC7E0D4E0CC8439
:10113000DD8468EE74E280E190E0C4DF8C2D47DE50
:101140008D2D45DE80E043DE80E041DECE013BDEDA
:101150001B82DF91CF91FF90EF90DF90CF900895A9
:10116000CF93DF93C7E0D4E06C857D85CB01A0E011
:10117000B0E0BC01CD0170588F4E9F4FA3DF81E0DE
:101180008B8380E090E0DF91CF9108950F931F93C0
:10119000CF93DF938C0180910A04882321F0BCDF78
:1011A00081E080930A04409113045091140468EE86
:1011B00074E280E190E0A2DFCCEFDFE080911504E3
:1011C0009091160480179107B0F48CDE9C012F3F9C
:1011D0008FE03807B1F08091130490911404821BC2
:1011E000930B8C7F9F709E01281B390B3093160444
:1011F00020931504E3CF80910A04882329F0B0DFFF
:1012000003C082E390E002C080E090E0DF91CF91E4
:101210001F910F9108950F931F93CF93DF93EB01CD
:10122000182F092F80911504909116040497F0F05F
:101230008C2FCDDD8D2FCBDD812FC9DD802FC7DD3C
:10124000809113049091140404969F709093140459
:101250008093130480911504909116040497909341
:1012600016048093150480E090E006C084E090E0CE
:101270008DDF82339105E1F6DF91CF911F910F91C0
:101280000895CF92DF92EF92FF9220910A042223D9
:1012900029F0FF90EF90DF90CF90BDCF6B017C01E4
:1012A0005FDFC701B601B7DF7C0136DFC701FF9002
:1012B000EF90DF90CF9008954F925F926F927F9260
:1012C000AF92BF92CF92DF92EF92FF920F931F9354
:1012D000CF93DF93EC016A017B0183E0C80ED11C40
:1012E000E11CF11CECEFCE22C114D104E104F104A5
:1012F00009F4A1C08091150490911604A0E0B0E01B
:101300008C159D05AE05BF0508F062C080910A04EA
:10131000882361F001DF409113045091140468EEBA
:1013200074E280E190E0EADE1BDF09C04091130423
:101330005091140468EE74E280E190E0DFDE4090AA
:10134000150450901604612C712CC414D504E604C5
:10135000F70410F4260137018E015201C40DD51D8A
:10136000C017D10729F0F80181918F0130DDF8CF46
:1013700080911304909114048A0D9B1D9F7090938B
:1013800014048093130420911504309116042A1933
:101390003B093093160420931504C418D508E608B9
:1013A000F708D701C601F1E0CF16F8E0DF06E10447
:1013B000F10420F080E098E0A0E0B0E028173907C1
:1013C00008F092CFE3DE8233910509F08DCF35C06E
:1013D0008E01412C512C3201F80181918F01F7DCF3
:1013E000FFEF4F1A5F0A6F0A7F0AC414D504E604A0
:1013F000F70491F7D701C6010197A109B109019638
:10140000C80FD91F80911304909114048C0D9D1D59
:101410009F7090931404809313048091150490910D
:1014200016048C199D099093160480931504C12C01
:10143000D12C760159CF80E090E0DF91CF911F91C0
:101440000F91FF90EF90DF90CF90BF90AF907F9083
:101450006F905F904F900895CF93DF9390E0FC01E1
:10146000EE57FE4F2491FC01E45CFE4F84918823EB
:1014700061F190E0880F991FFC01E85FFE4FC59174
:10148000D491FC01EE5DFE4FA591B491611109C0AC
:101490009FB7F8948881209582238883EC912E232E
:1014A0000BC0623061F49FB7F8948881322F309579
:1014B00083238883EC912E2B2C939FBF06C08FB77C
:1014C000F894E8812E2B28838FBFDF91CF91089568
:1014D000863308F0865390917B00282F2870977FE1
:1014E000922B90937B008770806480937C00809126
:1014F0007A00806480937A0080917A0086FDFCCF28
:10150000809178002091790090E0922B0895CF93FC
:10151000DF93CDB7DEB72C970FB6F894DEBF0FBEC2
:10152000CDBF789484B5826084BD84B5816084BD6C
:1015300085B5826085BD85B5816085BD80916E0071
:10154000816080936E0010928100809181008260A2
:1015500080938100809181008160809381008091DF
:1015600080008160809380008091B10084608093CE
:10157000B1008091B00081608093B00080919100B3
:1015800082608093910080919100816080939100AE
:10159000809190008160809390008091A100826092
:1015A0008093A1008091A10081608093A10080912F
:1015B000A00081608093A0008091210182608093CF
:1015C000210180912101816080932101809120017E
:1015D00081608093200180917A00846080937A00FA
:1015E00080917A00826080937A0080917A00816095
:1015F00080937A0080917A00806880937A001092BC
:10160000C100E0917A03F0917B0382E08083E09156
:101610007603F09177031082E0917803F0917903DB
:101620008FEC808310928203E0917E03F0917F0320
:1016300086E08083E0917C03F0917D03808180616E
:101640008083E0917C03F0917D03808188608083BA
:10165000E0917C03F0917D03808180688083E0913C
:101660007C03F0917D0380818F7D808361E0809198
:101670002C02F2DE61E080913C02EEDE61E08091BE
:101680002E02EADE61E080913E02E6DE61E08091BA
:101690000C02E2DE61E080911C02DEDE61E08091FE
:1016A0000E02DADE61E080911E02D6DE8BE792E068
:1016B00041DC61E080910904CFDE61E080910904A2
:1016C00084DC80910F04909110048F3F2FEF9207DC
:1016D00011F060E0C1DE61E080910704BDDE61E0F1
:1016E0008091070472DC1FB7F89480915F03811129
:1016F00023C0E1E7F1E08491E7EBF1E09491E82F7A
:10170000F0E0EE0FFF1FE85FFE4FA591B491EC9162
:10171000E92319F461E085E358DC61E085E39CDEB0
:101720008CB580618CBD8CB580648CBD61E084E338
:1017300093DE61E083E390DE80915F038F5F8093AF
:101740005F031FBFB9DB8CB58F7D8CBD8CB5837FEC
:101750008CBD61E08091090438DC79DB60E0809128
:10176000090433DC74DB61E0809109042EDC6FDB5B
:101770008CE0E0E4F2E0DE01119601900D928A9592
:10178000E1F79ADB60E070E0CB019DDB60DB5FDBC3
:1017900060E070E080E190E095DC8E010F5F1F4F0C
:1017A0007E018DE0E80EF11CF80181918F010FDBC5
:1017B0000E151F05C9F787E094E005DB42E060E500
:1017C00074E280E190E091DC109214041092130412
:1017D0008CEF9FE0909316048093150440E050E056
:1017E00068E474E280E190E089DC4AE050E06CE477
:1017F00074E280E190E082DC4CE050E060E474E26E
:1018000080E190E07BDC44E251E06CE374E280E153
:1018100090E074DC40E050E064E374E280E190E04A
:101820006DDC49E250E068E374E280E190E066DC60
:101830004BE250E06CE274E280E190E05FDC44E275
:1018400052E068E274E280E190E058DC40EE51E062
:1018500060E374E280E190E051DC40E151E064E457
:1018600074E280E190E04ADC41E050E068E674E236
:1018700080E190E043DC40E050E060E674E280E12B
:1018800090E03CDC45E050E06CE674E280E190E002
:1018900035DC60E070E084E490E015DBD8DA0CDB46
:1018A000D6DA40E050E06CE070E087E094E096DA51
:1018B00080E08DDAA82E80E08ADAB82E80E087DA20
:1018C000082F80E084DA182F87E094E07CDA650145
:1018D0007801F8E0CF16F1E0DF06EF06F10459F0E9
:1018E00081E992E016DB40E1C701B6012FDB88E712
:1018F00092E00FDB4AC087E0809311046CE874E249
:1019000080E190E0E0DA482F40686CE874E280E122
:1019100090E0EBDBDD24D394D09212046CE874E207
:1019200080E190E0D0DA482F42606CE874E280E118
:1019300090E0DBDB01E010E078010090110402C0D0
:10194000EE0CFF1C0A94E2F760E974E280E190E09B
:10195000BADA482F4E2960E974E280E190E0C5DBF5
:101960000090120402C0000F111F0A94E2F760E910
:1019700074E280E190E0A7DA482F402B60E974E23E
:1019800080E190E0B2DBD092600388EA92E0D2DAA4
:1019900080916003882341F180911704882321F10D
:1019A0002FB7F8948091620390916303A091640330
:1019B000B09165032FBF40911804509119046091B4
:1019C0001A0470911B04841B950BA60BB70B409156
:1019D0001C0450911D0460911E0470911F04841713
:1019E0009507A607B70718F40E943902D1CF2FB781
:1019F000F8948091620390916303A0916403B09185
:101A000065032FBF8093180490931904A0931A04C0
:101A1000B0931B04E0912004F09121041995E4CFC8
:101A2000EAE6F3E01382128288EE93E0A0E0B0E0F1
:101A300084839583A683B78320E532E031832083B6
:101A400025EC30E03587248724EC30E03787268783
:101A500020EC30E0318B208B21EC30E0338B228B7B
:101A600022EC30E0358B248B26EC30E0378B268B54
:101A7000118E128E138E148EE2E2F4E01382128223
:101A800084839583A683B78322E632E03183208363
:101A9000E7E1F4E021E020831182128213821482B4
:101AA00085839683A783B08787E693E092878187B3
:101AB000E7E0F4E0118288E08283148215821682C6
:101AC0001782158614868CEF9FE09787868787E0BC
:101AD0008287238713828AE0808389E090E0918760
:101AE00080870895BB274A3031F4992322F4BDE260
:101AF000909581959F4F01C0BB27FB015527AA27D1
:101B0000880F991FAA1FA41710F0A41B839550518A
:101B1000B9F7A05DAA3308F0A95DA193009779F702
:101B2000B111B1931192CB0100C0DC01FC01672F10
:101B300071917723E1F7329704C07C916D937083A4
:101B40006291AE17BF07C8F308955058BB27AA2764
:101B50000ED0E5C0D6D030F0DBD020F031F49F3F7E
:101B600011F41EF4CBC00EF4E095E7FBC1C0E92FE1
:101B7000E7D080F3BA17620773078407950718F058
:101B800071F49EF5FFC00EF4E0950B2EBA2FA02D38
:101B90000B01B90190010C01CA01A0011124FF271A
:101BA000591B99F0593F50F4503E68F11A16F04015
:101BB000A22F232F342F4427585FF3CF4695379514
:101BC0002795A795F0405395C9F77EF41F16BA0BD9
:101BD000620B730B840BBAF09150A1F0FF0FBB1F87
:101BE000661F771F881FC2F70EC0BA0F621F731FD0
:101BF000841F48F4879577956795B795F7959E3F2D
:101C000008F0B3CF9395880F08F09927EE0F9795BA
:101C10008795089504D06894B111B5C0089598D0FF
:101C200088F09F5790F0B92F9927B751A0F0D1F0C5
:101C3000660F771F881F991F1AF0BA95C9F712C04F
:101C4000B13081F09FD0B1E008959CC0672F782F0C
:101C50008827B85F39F0B93FCCF3869577956795BB
:101C6000B395D9F73EF490958095709561957F4F27
:101C70008F4F9F4F0895E89409C097FB3EF49095CD
:101C80008095709561957F4F8F4F9F4F9923A9F055
:101C9000F92F96E9BB279395F695879577956795E4
:101CA000B795F111F8CFFAF4BB0F11F460FF1BC028
:101CB0006F5F7F4F8F4F9F4F16C0882311F096E9BB
:101CC00011C0772321F09EE8872F762F05C0662369
:101CD00071F096E8862F70E060E02AF09A95660F22
:101CE000771F881FDAF7880F9695879597F90895DB
:101CF00097F99F6780E870E060E008959FEF80ECBF
:101D0000089500240A941616170618060906089561
:101D100000240A9412161306140605060895092EC7
:101D20000394000C11F4882352F0BB0F40F4BF2B36
:101D300011F460FF04C06F5F7F4F8F4F9F4F089576
:101D400057FD9058440F551F59F05F3F71F047956C
:101D5000880F97FB991F61F09F3F79F08795089551
:101D6000121613061406551FF2CF4695F1DF08C070
:101D7000161617061806991FF1CF8695710561058D
:101D800008940895E894BB2766277727CB0197F935
:101D900008950BD0C4CFB5DF28F0BADF18F0952333
:101DA00009F0A6CFABCF1124EECFCADFA0F3959FE9
:101DB000D1F3950F50E0551F629FF001729FBB2732
:101DC000F00DB11D639FAA27F00DB11DAA1F649FDE
:101DD0006627B00DA11D661F829F2227B00DA11D91
:101DE000621F739FB00DA11D621F839FA00D611D17
:101DF000221F749F3327A00D611D231F849F600D38
:101E0000211D822F762F6A2F11249F5750408AF070
:101E1000E1F088234AF0EE0FFF1FBB1F661F771FFC
:101E2000881F91505040A9F79E3F510570F060CF38
:101E3000AACF5F3FECF3983EDCF3869577956795E4
:101E4000B795F795E7959F5FC1F7FE2B880F911D1A
:101E50009695879597F90895A1E21A2EAA1BBB1BA8
:101E6000FD010DC0AA1FBB1FEE1FFF1FA217B30766
:101E7000E407F50720F0A21BB30BE40BF50B661F7C
:101E8000771F881F991F1A9469F760957095809540
:101E900090959B01AC01BD01CF010895EE0FFF1F8E
:101EA000881F8BBF0790F691E02D199481E090E098
:081EB000F89400C0F894FFCF84
:101EB800BC024000000000000000000027002900CC
:101EC800C802410000000000000000002B002D00A7
:101ED800D6023E0000000000000000001F002100A4
:101EE800E3023F000000000000000000230025007E
:101EF80000000002070000260000000000000000AB
:101F0800CC013A01640118029501730187010000B0
:101F18000000BB02B102CC02A302AA02A702A402DB
:101F28003A200020707369000D0A002D2D5374614A
:101F38007274204170706C69636174696F6E2D2DC5
:101F4800004572726F7220696E206368697020693B
:101F580064207265616420002D2D456E64204170F7
:101F6800706C69636174696F6E2D2D0044726976B7
:101F78006572205265617200506173656E676572A3
:101F88002052656172004472697665722046726FEC
:101F98006E740050617373656E6765722046726F68
:041FA8006E74000053
:020000023000CC
:10E000000D9489F10D94B2F10D94B2F10D94B2F129
:10E010000D94B2F10D94B2F10D94B2F10D94B2F1F0
:10E020000D94B2F10D94B2F10D94B2F10D94B2F1E0
:10E030000D94B2F10D94B2F10D94B2F10D94B2F1D0
:10E040000D94B2F10D94B2F10D94B2F10D94B2F1C0
:10E050000D94B2F10D94B2F10D94B2F10D94B2F1B0
:10E060000D94B2F10D94B2F10D94B2F10D94B2F1A0
:10E070000D94B2F10D94B2F10D94B2F10D94B2F190
:10E080000D94B2F10D94B2F10D94B2F10D94B2F180
:10E090000D94B2F10D94B2F10D94B2F10D94B2F170
:10E0A0000D94B2F10D94B2F10D94B2F10D94B2F160
:10E0B0000D94B2F10D94B2F10D94B2F10D94B2F150
:10E0C0000D94B2F10D94B2F10D94B2F10D94B2F140
:10E0D0000D94B2F10D94B2F10D94B2F10D94B2F130
:10E0E0000D94B2F141546D656761323536300041AF
:10E0F000726475696E6F206578706C6F72657220DE
:10E1000073746B3530305632206279204D4C530099
:10E11000426F6F746C6F616465723E004875683F52
:10E1200000436F6D70696C6564206F6E203D200048
:10E130004350552054797065202020203D20005FF9
:10E140005F4156525F415243485F5F3D2000415658
:10E1500052204C696243205665723D20004743437C
:10E160002056657273696F6E203D20004350552024
:10E1700049442020202020203D20004C6F7720663D
:10E18000757365202020203D20004869676820665F
:10E190007573652020203D200045787420667573D6
:10E1A00065202020203D20004C6F636B2066757336
:10E1B000652020203D20004D617220203720323024
:10E1C000313300312E362E3800342E332E350056A2
:10E1D00023202020414444522020206F7020636F70
:10E1E00064652020202020696E73747275637469E1
:10E1F0006F6E2061646472202020496E74657272B3
:10E20000757074006E6F20766563746F7200726A49
:10E210006D702020006A6D70200057686174207056
:10E220006F72743A00506F7274206E6F7420737541
:10E2300070706F72746564004D7573742062652030
:10E2400061206C6574746572002000577269747483
:10E25000696E672045450052656164696E672045B7
:10E26000450045452065727220636E743D00504F35
:10E27000525400303D5A65726F2061646472003FF1
:10E280003D43505520737461747300403D454550C3
:10E29000524F4D207465737400423D426C696E6B41
:10E2A000204C454400453D44756D70204545505215
:10E2B0004F4D00463D44756D7020464C415348001B
:10E2C000483D48656C70004C3D4C69737420492F83
:10E2D0004F20506F72747300513D51756974005234
:10E2E0003D44756D702052414D00563D73686F7707
:10E2F00020696E7465727275707420566563746FF0
:10E30000727300593D506F727420626C696E6B00BD
:10E310002A0011241FBECFEFD1E2DEBFCDBF01E046
:10E320000CBF12E0A0E0B2E0EEE1FDEF03E00BBFB6
:10E3300002C007900D92A030B107D9F712E0A0E01B
:10E34000B2E001C01D92AE30B107E1F70F9460F367
:10E350000D948DFE01E20EBF0FEF0DBF11241FBE05
:10E360000D9460F30D9400F020E030E040ED57E0B4
:10E3700005C0FA013197F1F72F5F3F4F2817390792
:10E38000C0F308959C01260F311DC901A0E0B0E043
:10E390002F5F3F4FABBFFC018791882361F08093D3
:10E3A000C6008091C00086FFFCCF8091C0008064D1
:10E3B0008093C000EACF08958DE08093C6008091DD
:10E3C000C00086FFFCCF8091C00080648093C000B5
:10E3D0008AE08093C6008091C00086FFFCCF8091C8
:10E3E000C00080648093C00008950F94C2F10F9420
:10E3F000DCF10895FC019081992359F09093C600B7
:10E400008091C00086FFFCCF8091C0008064809323
:10E41000C0003196992379F70895282F982F929567
:10E420009F70892F805D8A3308F0895F8093C600D2
:10E430008091C00086FFFCCF8091C00080648093F3
:10E44000C000822F8F70982F905D9A3308F0995FEB
:10E450009093C6008091C00086FFFCCF8091C000E1
:10E4600080648093C00008959C01FB01853691056E
:10E470001CF46330710594F0C90164E670E00F94F8
:10E480002EFE605D7F4F6093C6008091C00086FFC6
:10E49000FCCF8091C00080648093C0002B30310598
:10E4A00014F43297B4F0C90164E670E00F942EFEC4
:10E4B0006AE070E00F942EFE605D7F4F6093C600AF
:10E4C0008091C00086FFFCCF8091C0008064809363
:10E4D000C000C9016AE070E00F942EFEC0968093E0
:10E4E000C6008091C00086FFFCCF8091C000806490
:10E4F0008093C00008951F93182F8EE692EE60E07F
:10E500000F94C2F11093C6008091C00086FFFCCF2B
:10E510008091C00080648093C0000F94DCF11F9153
:10E5200008952F923F924F925F926F927F928F92B7
:10E530009F92AF92BF92CF92DF92EF92FF920F9392
:10E540001F93DF93CF93CDB7DEB762970FB6F894E2
:10E55000DEBF0FBECDBF382E622ECA01DB015C01CB
:10E560006D01772420E2222E2E010894411C511CBB
:10E570008BC081E0A81680E0B80681E0C80680E084
:10E58000D80628F0C601AA27BB270F940DF2BB2797
:10E59000AD2D9C2D8B2D0F940DF28A2D0F940DF225
:10E5A0002092C6008091C00086FFFCCF8091C00001
:10E5B00080648093C0009DE29093C6008091C0006B
:10E5C00086FFFCCF8091C00080648093C0002092C1
:10E5D000C6008091C00086FFFCCF8091C00080649F
:10E5E0008093C00019828601750188249924A1E0D6
:10E5F0003A1651F03A1620F0B2E03B1661F409C029
:10E600000BBFF701779007C0C7010F9477FE782EF4
:10E6100002C0F7017080872D0F940DF22092C60082
:10E620008091C00086FFFCCF8091C0008064809301
:10E63000C000872D8052F401EF70F0708F3520F408
:10E64000E40DF51D708204C0E40DF51D8EE280839B
:10E650000894E11CF11C011D111D0894811C911CE2
:10E6600090E18916910409F0C2CF80E190E0A0E02A
:10E67000B0E0A80EB91ECA1EDB1E198AC2010F9493
:10E68000FAF10F94DCF16A94662009F072CF629679
:10E690000FB6F894DEBF0FBECDBFCF91DF911F91B3
:10E6A0000F91FF90EF90DF90CF90BF90AF909F9031
:10E6B0008F907F906F905F904F903F902F90089534
:10E6C0002F923F924F925F926F927F928F929F9282
:10E6D000AF92BF92CF92DF92EF92FF920F931F9370
:10E6E000DF93CF93CDB7DEB7CD53D1400FB6F894BB
:10E6F000DEBF0FBECDBF01E20EBF0FEF0DBF94B75F
:10E70000F894A89514BE80916000886180936000A1
:10E7100010926000789493FF05C0E0910002F091A0
:10E7200001021995279A2F9A8091C00082608093E8
:10E73000C00080E18093C40088E18093C1000000A4
:10E74000EE24FF24870144E0A42EB12CCC24DD2448
:10E7500024C0C5010197F1F70894E11CF11C011DCB
:10E76000111D21E2E2162EE4F20620E0020720E06D
:10E77000120718F031E0C32ED12CC801B70127ECE5
:10E780003BE140E050E00F9441FE611571058105C9
:10E79000910519F485B1805885B98091C00087FD35
:10E7A00003C0C114D104A9F2A6014F5F5F4FC25E3E
:10E7B000DE4F59834883CE51D140C25EDE4F8881FF
:10E7C0009981CE51D140019711F00D9410FEC05D9A
:10E7D000DE4F19821882C053D14060E0C15DDE4F28
:10E7E0001882CF52D14088249924C35DDE4F19820C
:10E7F0001882CD52D140C05EDE4F188219821A8233
:10E800001B82C052D140CE5CDE4F188219821A8220
:10E810001B82C253D140EE24FF2487010BBFF701B6
:10E8200007911691C45CDE4F19830883CC53D14005
:10E830000D940BFEC25EDE4F28813981CE51D1404E
:10E840002130310509F52091C600C25EDE4F1982E4
:10E850001882CE51D14022C02F5F3F4F4F4F5F4FA4
:10E86000213082E138078AE7480780E0580780F0C6
:10E87000C45CDE4FE881F981CC53D140EF5FFF4F9C
:10E8800019F0EE27FF27099420E030E040E050E047
:10E890008091C00087FFE0CF2091C600C35DDE4FAE
:10E8A00048815981CD52D1404F5F5F4FC35DDE4FEC
:10E8B00059834883CD52D140213209F063C64A3092
:10E8C000510508F05FC60894811C911C53E0851621
:10E8D000910409F059C600E010E018C081E280936D
:10E8E000C6008091C00086FFFCCF8091C00080648C
:10E8F0008093C0002F5F3F4F2931310579F70F9486
:10E90000DCF10F5F1F4F0530110519F020E030E0FA
:10E91000E5CF10920A0210920B0210920C02109294
:10E920000D02109206021092070210920802109235
:10E930000902109202021092030210920402109235
:10E9400005028FEE90EE60E00F94F5F180E191EE1C
:10E9500060E00F94C2F18091C00087FFFCCF9091DE
:10E96000C600903608F09F759032B8F09093C600BC
:10E970008091C00086FFFCCF8091C00080648093AE
:10E98000C000A0E2A093C6008091C00086FFFCCF2B
:10E990008091C00080648093C000983409F4D7C18E
:10E9A0009934B8F4923409F459C1933458F490333B
:10E9B00019F1903308F4E3C59F33A1F1903409F0C5
:10E9C000DEC5BDC0953409F470C1963409F0D7C5D1
:10E9D00098C1923509F42BC2933538F49C3409F46C
:10E9E000F5C1913509F0CBC518C2963509F445C279
:10E9F000993509F0C4C567C483E792EE62E00F94CD
:10EA0000F5F110920602109207021092080210927D
:10EA1000090210920A0210920B0210920C0210923C
:10EA20000D0213C18FE792EE62E00F94F5F18FEEC5
:10EA300090EE60E00F94F5F181E291EE60E00F94CA
:10EA4000C2F187EB91EE60E00F94F5F180E391EE77
:10EA500060E00F94C2F184EE90EE60E00F94F5F167
:10EA60008FE391EE60E00F94C2F186E090E061E008
:10EA700070E00F9434F20F94DCF18DE591EE60E0DC
:10EA80000F94C2F189EC91EE60E00F94F5F18EE401
:10EA900091EE60E00F94C2F183EC91EE60E00F9490
:10EAA000F5F18CE691EE60E00F94C2F18EE10F94E7
:10EAB0000DF288E90F940DF281E00F940DF20F949E
:10EAC000DCF18BE791EE60E00F94C2F119E0E0E039
:10EAD000F0E010935700E4918E2F0F940DF20F94F5
:10EAE000DCF18AE891EE60E00F94C2F1E3E0F0E03F
:10EAF00010935700E4918E2F0F940DF20F94DCF1D8
:10EB000089E991EE60E00F94C2F1E2E0F0E0109349
:10EB10005700E4918E2F0F940DF20F94DCF188EAE8
:10EB200091EE60E00F94C2F1E1E0F0E01093570045
:10EB30001491812F0F940DF20F94DCF107CF8BE825
:10EB400092EE62E00F94F5F18BE492EE60E00F94A8
:10EB5000F5F10F94DCF100E010E019C0C8016F2D51
:10EB60000F947FFEFF2031F489E492EE60E00F9471
:10EB7000C2F10BC0F092C6008091C00086FFFCCFAE
:10EB80008091C00080648093C0000F5F1F4FC80158
:10EB900081519F41A0E0B0E0ABBFFC01F790BAE229
:10EBA000FB1621F0E2E000301E07C1F60F94DCF105
:10EBB0000F94DCF187E592EE60E00F94F5F10F948D
:10EBC000DCF1CC24DD2400E010E01EC0C8010F946D
:10EBD00077FEF82E882331F489E492EE60E00F94FA
:10EBE000C2F10BC08093C6008091C00086FFFCCFAD
:10EBF0008091C00080648093C000FE1419F00894D6
:10EC0000C11CD11C0F5F1F4FC80181519F41A0E063
:10EC1000B0E0ABBFFC01E790FAE2EF1621F022E092
:10EC20000030120799F60F94DCF10F94DCF182E6C4
:10EC300092EE60E00F94C2F1C60161E070E00F94C3
:10EC400034F20F94DCF10F94DCF110920202109276
:10EC50000302109204021092050278CE89E992EE26
:10EC600062E00F94F5F1279A2F9A16C02F9880E052
:10EC700090E0E0EDF7E03197F1F7019684369105E9
:10EC8000C1F72F9A80E090E0E0EDF7E03197F1F7DF
:10EC9000019684369105C1F78091C00087FFE6CFC9
:10ECA0008091C00087FFFCCF64C485EA92EE62E0E9
:10ECB0000F94F5F140910202509103026091040219
:10ECC0007091050281E020E10F9491F2809102029F
:10ECD00090910302A0910402B091050280509F4FD1
:10ECE000AF4FBF4F8093020290930302A0930402A0
:10ECF000B093050280509041A040B04008F426CE69
:10ED0000A4CF83EB92EE62E00F94F5F140910602FE
:10ED100050910702609108027091090280E020E1A1
:10ED20000F9491F28091060290910702A09108023F
:10ED3000B091090280509F4FAF4FBF4F80930602A2
:10ED400090930702A0930802B0930902FFCD80ECD4
:10ED500092EE62E00F94F5F183E792EE60E00F949B
:10ED6000F5F18FE792EE60E00F94F5F18BE892EE0B
:10ED700060E00F94F5F189E992EE60E00F94F5F10F
:10ED800085EA92EE60E00F94F5F183EB92EE60E09D
:10ED90000F94F5F180EC92EE60E00F94F5F187ECC2
:10EDA00092EE60E00F94F5F188ED92EE60E00F9442
:10EDB000F5F18FED92EE60E00F94F5F18AEE92EEB0
:10EDC00060E00F94F5F183E093EEBDCD87EC92EE19
:10EDD00062E00F94F5F181E40F947BF282E40F94EA
:10EDE0007BF283E40F947BF284E40F947BF285E45E
:10EDF0000F947BF286E40F947BF287E40F947BF20E
:10EE000088E40F947BF28AE40F947BF28BE40F94F6
:10EE10007BF28CE40F947BF299CD88ED92EE62E068
:10EE20000F94F5F1772473948824992409C48FED05
:10EE300092EE62E00F94F5F140910A0250910B02BC
:10EE400060910C0270910D0282E020E10F9491F22A
:10EE500080910A0290910B02A0910C02B0910D02D8
:10EE600080509F4FAF4FBF4F80930A0290930B0289
:10EE7000A0930C02B0930D0269CD8AEE92EE62E08F
:10EE80000F94F5F184EE90EE60E00F94F5F18FECC5
:10EE900091EE60E00F94F5F1662477244301CC5D98
:10EEA000DE4F19821882C452D140D401C301B695F5
:10EEB000A79597958795CA5DDE4F88839983AA8326
:10EEC000BB83C652D140CC5DDE4FA881B981C4520C
:10EED000D1401196CC5DDE4FB983A883C452D14096
:10EEE000CD0162E070E00F9434F2B0E2B093C6005E
:10EEF0008091C00086FFFCCF8091C0008064809329
:10EF0000C000EDE2E093C6008091C00086FFFCCF18
:10EF10008091C00080648093C000F0E2F093C6004E
:10EF20008091C00086FFFCCF8091C00080648093F8
:10EF3000C000CA5DDE4FE880F9800A811B81C6529D
:10EF4000D140BB27A12F902F8F2D0F940DF2CA5DBA
:10EF5000DE4F8881C652D1400F940DF2B0E2FB2EF5
:10EF6000F092C6008091C00086FFFCCF8091C00067
:10EF700080648093C0000DE30093C6008091C000C0
:10EF800086FFFCCF8091C00080648093C00010E2B7
:10EF90001093C6008091C00086FFFCCF8091C00016
:10EFA00080648093C0008BBEF3012791C65DDE4F65
:10EFB0002883CA52D140A22EBB24CC24DD2408943D
:10EFC000611C711C811C911C8BBEF3018791282E42
:10EFD0003324442455240894611C711C811C911C09
:10EFE0008BBEF3013791C55DDE4F3883CB52D140E4
:10EFF0000894611C711C811C911C8BBEF30147910C
:10F00000C45DDE4F4883CC52D140ADEFEA2EAFEF66
:10F01000FA2EAFEF0A2FAFEF1A2F6E0C7F1C801E57
:10F02000911E142D032DF22CEE24EA0CFB1C0C1D5A
:10F030001D1D0F940DF220E22093C6008091C000A8
:10F0400086FFFCCF8091C00080648093C000C65DC5
:10F05000DE4F8881CA52D1400F940DF230E23093D6
:10F06000C6008091C00086FFFCCF8091C000806404
:10F070008093C000C45DDE4F8881CC52D1400F9494
:10F080000DF240E24093C6008091C00086FFFCCFA5
:10F090008091C00080648093C000C55DDE4F888190
:10F0A000CB52D1400F940DF250E25093C6008091A4
:10F0B000C00086FFFCCF8091C00080648093C000B8
:10F0C0008FEFE8168FEFF80680E0080780E018075A
:10F0D00031F484E092EE60E00F94C2F1DFC0D80119
:10F0E000C7018070907CA070B0708050904CA040A0
:10F0F000B040D1F52FEF3FE340E050E0E222F322B1
:10F1000004231523CA5DDE4FA880B980CA80DB8046
:10F11000C652D140AE0CBF1CC01ED11EAA0CBB1CD7
:10F12000CC1CDD1C8EE092EE60E00F94C2F1BB2798
:10F13000A12F902F8F2D0F940DF28E2D0F940DF285
:10F1400030E23093C6008091C00086FFFCCF8091F2
:10F15000C00080648093C0004EE34093C60080915D
:10F16000C00086FFFCCF87C08EE09EEFA0E0B0E03D
:10F17000E822F9220A231B239CE0E91694E9F90608
:10F1800090E0090790E0190709F088C0C45DDE4FE0
:10F19000A881CC52D140EA2EFF2400E010E0102FCD
:10F1A0000F2DFE2CEE24C55DDE4FB881CB52D14031
:10F1B000EB0EF11C011D111DD601C501817090706F
:10F1C000A070B070DC0199278827E80EF91E0A1F8D
:10F1D0001B1F20EF30E040E050E0A222B322C42207
:10F1E000D52241E1AA0CBB1CCC1CDD1C4A95D1F7F1
:10F1F000EA0CFB1C0C1D1D1D81E090E0A0E0B0E0BE
:10F20000282239224A225B2235E1220C331C441C7D
:10F21000551C3A95D1F7E20CF31C041D151D57013E
:10F220006801AA0CBB1CCC1CDD1C85E192EE60E0E1
:10F230000F94C2F1C801AA27BB270F940DF2BB2778
:10F24000A12F902F8F2D0F940DF28E2D0F940DF274
:10F2500090E29093C6008091C00086FFFCCF809121
:10F26000C00080648093C000AEE3A093C60080918C
:10F27000C00086FFFCCF8091C00080648093C000F6
:10F28000C601AA27BB270F940DF2BB27AD2D9C2DDD
:10F290008B2D0F940DF28A2D0F940DF20F94DCF14B
:10F2A000CC5DDE4FE881F981C452D140F99709F471
:10F2B0004DCBF4E0EF2EF12C012D112D6E0C7F1CA7
:10F2C000801E911EF2CD83E093EE62E00F94F5F183
:10F2D0008AE192EE60E00F94C2F18091C00087FF56
:10F2E000FCCF1091C6001F751093C6008091C0001E
:10F2F00086FFFCCF8091C00080648093C0000F9493
:10F30000DCF1812F81548A3108F036C1163409F4BA
:10F3100095C0173490F4133409F44EC0143430F40B
:10F320001134F1F0123409F01DC130C0143409F465
:10F3300059C0153409F016C16BC01A3409F4C4C0A1
:10F340001B3438F4173409F48FC0183409F00AC19B
:10F35000A1C01B3409F4D2C01C3409F003C1E8C0B9
:10F360008FEF81B90DC082B1809582B980E090E0C5
:10F37000E0EDF7E03197F1F70196883C9105C1F790
:10F380008091C00087FFEFCF12B8EFC08FEF84B934
:10F390000DC085B1809585B980E090E0E0EDF7E0A3
:10F3A0003197F1F70196883C9105C1F78091C00033
:10F3B00087FFEFCF15B8D9C08FEF87B90DC088B1DF
:10F3C000809588B980E090E0E0EDF7E03197F1F7C3
:10F3D0000196883C9105C1F78091C00087FFEFCF6F
:10F3E00018B8C3C08FEF8AB90DC08BB180958BB9A7
:10F3F00080E090E0E0EDF7E03197F1F70196883C8E
:10F400009105C1F78091C00087FFEFCF1BB8ADC059
:10F410008FEF8DB90DC08EB180958EB980E090E0F0
:10F42000E0EDF7E03197F1F70196883C9105C1F7DF
:10F430008091C00087FFEFCF1EB897C08FEF80BBD1
:10F440000DC081B3809581BB80E090E0E0EDF7E0F6
:10F450003197F1F70196883C9105C1F78091C00082
:10F4600087FFEFCF11BA81C08FEF83BB0DC084B38C
:10F47000809584BB80E090E0E0EDF7E03197F1F714
:10F480000196883C9105C1F78091C00087FFEFCFBE
:10F4900014BA6BC08FEF809301010FC080910201FD
:10F4A00080958093020180E090E0E0EDF7E03197F5
:10F4B000F1F70196883C9105C1F78091C00087FF64
:10F4C000EDCF1092020151C08FEF809304010FC065
:10F4D0008091050180958093050180E090E0E0ED4A
:10F4E000F7E03197F1F70196883C9105C1F78091DB
:10F4F000C00087FFEDCF1092050137C08FEF8093DA
:10F5000007010FC08091080180958093080180E079
:10F5100090E0E0EDF7E03197F1F70196883C910536
:10F52000C1F78091C00087FFEDCF109208011DC088
:10F530008FEF80930A010FC080910B01809580931B
:10F540000B0180E090E0E0EDF7E03197F1F70196F4
:10F55000883C9105C1F78091C00087FFEDCF1092E4
:10F560000B0103C085E292EEEEC98091C00087FFD7
:10F57000FCCF8091C600EAC988E392EEE4C98CE131
:10F5800091EEE1C988249924933011F1943028F444
:10F59000913089F09230B8F408C0953061F195301F
:10F5A000F0F0963009F048C043C02B3109F042C951
:10F5B00091E06BE13FC96227C15DDE4F2883CF52E6
:10F5C000D14092E037C9B22FA0E0622793E032C960
:10F5D000822F90E0A82BB92B622794E02BC92E3004
:10F5E00009F039C3622795E0C05DDE4F19821882A9
:10F5F000C053D1401FC9E1E0F0E0EC0FFD1FC05D3A
:10F60000DE4F08811981C053D140E00FF11F2083E4
:10F610000F5F1F4FC05DDE4F19830883C053D14079
:10F6200062270A171B0709F005C9D80196E002C92D
:10F63000261709F010C303C0973009F0FBC87724E0
:10F640009981933109F412C19431C8F4963009F4C8
:10F65000D8C0973050F4923009F406C1933009F4C1
:10F660006DC0913009F059C253C0913109F477C08F
:10F67000923108F0BBC0903109F04FC2F5C098310B
:10F6800009F487C0993150F4953109F4EFC09531F0
:10F6900008F4C6C1963109F040C2C2C19A3109F4DA
:10F6A0006CC09A3108F491C09B3109F45BC09D3164
:10F6B00009F033C29D81903359F48F81882311F46E
:10F6C0009EE11CC0813011F091E018C098E916C08D
:10F6D000892F807591F0903539F4E0E0F0E089E011
:10F6E0008093570094910AC0983539F4E3E0F0E034
:10F6F00089E080935700949101C090E01A821B82A8
:10F700008D818C831D829E831F8227E030E009C299
:10F710001A8288E08B8381E48C8386E58D8382E581
:10F720008E8389E48F8383E5888780E589878FE5E9
:10F730008A8782E38B872BE030E0F3C18A818139AD
:10F7400041F0823941F0803911F48FE005C080E04A
:10F7500003C082E001C08AE01A828B8344C0772410
:10F76000739482C08D81882311F48EE12CC0813086
:10F7700011F081E028C088E926C01A82E1E0F0E0BB
:10F7800089E08093570084918B831C8224E030E0D1
:10F79000C8C18B81803589F48C81883039F4E2E0EE
:10F7A000F0E089E08093570084910DC0E0E0F0E044
:10F7B00089E080935700849106C0E3E0F0E089E09F
:10F7C0008093570084911A82DFCF8D81836C99E0FA
:10F7D000E1E0F0E0082E90935700E89507B600FCB2
:10F7E000FDCF1A821B8223E030E09BC180EC8A832C
:10F7F000CE5CDE4F188219821A821B82C253D1401E
:10F800008EC18A8190E0A0E0B0E0582F44273327D2
:10F8100022278B8190E0A0E0B0E0DC0199278827C7
:10F82000282B392B4A2B5B2B8D8190E0A0E0B0E098
:10F83000282B392B4A2B5B2B8C8190E0A0E0B0E089
:10F84000BA2FA92F982F8827282B392B4A2B5B2BCF
:10F85000220F331F441F551FC05EDE4F288339839C
:10F860004A835B83C052D1401A8259C13A81C95C34
:10F87000DE4F3883C753D140CA5CDE4F1882C6536F
:10F88000D1408B81C82EDD24CA5CDE4F488159816E
:10F89000C653D140C42AD52A933109F082C0CE5C28
:10F8A000DE4F88819981AA81BB81C253D1408050AB
:10F8B000904CA340B04030F583E0CE5CDE4FE88052
:10F8C000F9800A811B81C253D140F70100935B008C
:10F8D00080935700E89507B600FCFDCFCE5CDE4F65
:10F8E000088119812A813B81C253D14000501F4FAA
:10F8F0002F4F3F4FCE5CDE4F088319832A833B8313
:10F90000C253D140C05EDE4F488159816A817B81FC
:10F91000C052D140DE011B9631E08C9111962C91A2
:10F9200011971296C75CDE4F2883C953D140C85C3B
:10F93000DE4F1882C853D14090E0C85CDE4FE881AA
:10F94000F981C853D1408E2B9F2B0C01FA01609393
:10F950005B0030935700E89511244E5F5F4F6F4F67
:10F960007F4F0EEFE02E0FEFF02ECE0CDF1CC114F8
:10F97000D10499F685E0C05EDE4F088119812A81A5
:10F980003B81C052D140F80120935B008093570027
:10F99000E89507B600FCFDCF81E180935700E8951C
:10F9A00035C0C05EDE4F88819981AA81BB81C0527B
:10F9B000D140B695A795979587957C018601ABE0D8
:10F9C000AA2EB12CAC0EBD1E0BC0D5016D915D01F0
:10F9D000C7010F947FFE0894E11CF11C01501040F8
:10F9E0000115110591F7A60160E070E0440F551F65
:10F9F000661F771FC05EDE4FE880F9800A811B8199
:10FA0000C052D1404E0D5F1D601F711F1A82C05E33
:10FA1000DE4F488359836A837B83C052D1407FC0C5
:10FA2000FA80C55CDE4FF882CB53D140C65CDE4F16
:10FA30001882CA53D1408B81C82EDD24C65CDE4FAC
:10FA400008811981CA53D140C02AD12A1A828981DA
:10FA5000BE016D5F7F4F843121F59601C05EDE4FA0
:10FA6000E880F9800A811B81C052D1400BBFF701A9
:10FA700087919691DB018C9311969C936E5F7F4FDB
:10FA8000D801C7010296A11DB11DC05EDE4F88835B
:10FA90009983AA83BB83C052D14022503040F1F6F3
:10FAA00036C0C05EDE4F288139814A815B81C052F9
:10FAB000D1400894C108D108760100E010E0089414
:10FAC000C11CD11C0894E11CF11C011D111DE20E8A
:10FAD000F31E041F151F21BDBB27A52F942F832FB5
:10FAE00082BD2F5F3F4F4F4F5F4FF89A80B5DB01CC
:10FAF0008D93BD012E153F054007510761F7C05E8C
:10FB0000DE4F288339834A835B83C052D1409601FC
:10FB10002D5F3F4FFB01108204C080EC8A8322E0FE
:10FB200030E08BE18093C6008091C00086FFFCCF5F
:10FB30008091C00080648093C000C15DDE4FF88179
:10FB4000CF52D140F093C6008091C00086FFFCCF19
:10FB50008091C00080648093C000432F3093C60022
:10FB60008091C00086FFFCCF8091C00080648093AC
:10FB7000C000922F2093C6008091C00086FFFCCF6A
:10FB80008091C00080648093C0008EE08093C600A6
:10FB90008091C00086FFFCCF8091C000806480937C
:10FBA000C00065E1C15DDE4FE880CF52D1406E25D7
:10FBB00069276427FE01319610C090819093C6009A
:10FBC0008091C00086FFFCCF31968091C000806498
:10FBD0008093C0006927215030402115310569F715
:10FBE0006093C6008091C00086FFFCCF8091C0006A
:10FBF00080648093C00085B1805885B9772081F4F6
:10FC0000C15DDE4F0881CF52D1400F5FC15DDE4F35
:10FC10000883CF52D14090E0A0E0B0E00D941AF4F8
:10FC200027982F9880E090E020ED37E0F901319798
:10FC3000F1F7019684369105C9F700008091C00064
:10FC40008D7F8093C00081E180935700E895EE2777
:10FC5000FF270994FFCF90E00D941AF497FB092E2B
:10FC600007260AD077FD04D02ED006D000201AF443
:10FC7000709561957F4F0895F6F7909581959F4F08
:10FC80000895A1E21A2EAA1BBB1BFD010DC0AA1FDD
:10FC9000BB1FEE1FFF1FA217B307E407F50720F0F5
:10FCA000A21BB30BE40BF50B661F771F881F991F70
:10FCB0001A9469F760957095809590959B01AC01B9
:10FCC000BD01CF010895AA1BBB1B51E107C0AA1FAC
:10FCD000BB1FA617B70710F0A61BB70B881F991FED
:10FCE0005A95A9F780959095BC01CD010895F99991
:10FCF000FECF92BD81BDF89A992780B50895262F31
:10FD0000F999FECF1FBA92BD81BD20BD0FB6F89400
:0EFD1000FA9AF99A0FBE01960895F894FFCF63
:040000033000E000E9
:00000001FF
