:1000000007C1000036C1000034C1000032C1000049
:1000100030C100002EC100002CC100002AC1000028
:1000200028C1000026C1000024C1000022C1000038
:1000300020C100001EC100001CC100001AC1000048
:1000400018C1000016C1000014C1000012C1000058
:1000500010C100000EC100000CC100000C94A114DE
:1000600008C100000C9414150C94EB1402C100009C
:1000700000C10000FEC00000FCC00000FAC000008B
:10008000F8C00000F6C00000F4C00000F2C000009C
:10009000F0C00000EEC00000ECC000000C94F519A8
:1000A000E8C00000E6C00000E4C00000E2C00000BC
:1000B000E0C00000DEC00000DCC00000DAC00000CC
:1000C000D8C00000D6C00000D4C00000D2C00000DC
:1000D000D0C00000CEC00000CCC00000CAC00000EC
:1000E000C8C0000038163B162A162E163216721695
:1000F0003F16431649164D16511657165B165F16D6
:100100007216651669166D1600002100240027007E
:100110002A002D0030003300010100000401070116
:100120000A0100002200250028002B002E003100CB
:10013000340002010000050108010B010505050559
:10014000070508080808020202020A0A080804044F
:10015000040401010101010101010303030303037D
:100160000303040707070C0C0C0C0C0C0C0C02020C
:10017000020206060606060606060B0B0B0B0B0B09
:100180000B0B010210202008081020401020408096
:10019000020102010804020101020408102040804B
:1001A00080402010080402018004020180402010D9
:1001B0000804020108040201010204081020408022
:1001C000010204081020408000000A0B02090C0DF7
:1001D0000E080703040100000000000000000000FA
:1001E000000000000000000000000000000000000F
:1001F00000000000121110000000000000000000CC
:1002000000000000000000000000000000005C1E74
:1002100011241FBECFEFD1E2DEBFCDBF00E00CBF87
:1002200013E0A0E0B2E0E0E5F1E400E00BBF02C0C3
:1002300007900D92AA30B107D9F724E0AAE0B3E005
:1002400001C01D92A434B207E1F711E0C8E0D1E08B
:1002500000E006C021970109802FFE010E949A202C
:10026000C730D10780E00807A9F70E94C91B0C948A
:10027000A620C6CEAF92BF92CF92DF92EF92FF92AE
:100280000F931F938091240290912502909327024F
:100290008093260280913402909135029093370228
:1002A0008093360280910402909105029093070298
:1002B0008093060280911402909115029093170288
:1002C00080931602809122020E941219BC01990F9C
:1002D000880B990B0E94891F2AE038E240EA5BE311
:1002E0000E941520609328027093290280932A02AD
:1002F00090932B02809132020E941219BC01990F37
:10030000880B990B0E94891F2AE038E240EA5BE3E0
:100310000E941520609338027093390280933A024C
:1003200090933B02809102020E941219BC01990F26
:10033000880B990B0E94891F2AE038E240EA5BE3B0
:100340000E941520609308027093090280930A02AC
:1003500090930B02809112020E941219BC01990F16
:10036000880B990B0E94891F2AE038E240EA5BE380
:100370000E9415206B017C01609318027093190292
:1003800080931A0290931B0220E030E040E05FE38C
:10039000609128027091290280912A0290912B028B
:1003A0000E94F11E20E030E048E452E40E94152053
:1003B0000E94561F709325026093240220E030E0D3
:1003C00040E05FE3609138027091390280913A0217
:1003D00090913B020E94F11E20E030E048E452E49C
:1003E0000E9415200E94561F7093350260933402BC
:1003F00020E030E040E05FE3609108027091090284
:1004000080910A0290910B020E94F11E20E030E0E0
:1004100048E452E40E9415200E94561F7093050282
:100420006093040220E030E040E05FE3C701B601E2
:100430000E94F11E20E030E048E452E40E941520C2
:100440000E94561F709315026093140260E07FEFC4
:100450008FEF9FEF0E94661767E070E080E096E202
:100460000E94661760E070E081E292E00E946617E9
:1004700067E070E080E096E20E94661760E070E05E
:1004800081EA94E00E9466178BE4A82EB12C92E2D8
:10049000C92EDD24D394E0902002F0902102009137
:1004A00022021091230220912402309125024091D2
:1004B00026025091270260912802709129028091B2
:1004C0002A0290912B020E94221B22ECC22EDD24D4
:1004D000D394E0903002F0903102009132021091FA
:1004E000330220913402309135024091360250910E
:1004F0003702609138027091390280913A029091EE
:100500003B020E94221B38ECA32EB12C42E2C42EE7
:10051000DD24D394E0900002F090010200910202E9
:1005200010910302209104023091050240910602CD
:1005300050910702609108027091090280910A02AD
:1005400090910B020E94221B52ECC52EDD24D39405
:10055000E0901002F090110200911202109113022B
:100560002091140230911502409116025091170209
:10057000609118027091190280911A0290911B02E9
:100580000E94221B63E070E080E09FE10E946617FA
:1005900060E070E081E694E00E9466176FE070E032
:1005A00080E09EE00E9466176EE170E082E791E0D5
:1005B0000E948B176EE170E087E791E00E948B1735
:1005C0006EE170E087E791E00E948B176EE170E0CA
:1005D0008DE791E00E948B176EE170E08DE791E06E
:1005E0000E948B176FE170E082E891E00E948B1708
:1005F0006FE170E082E891E00E948B1760E270E0AA
:1006000087E891E00E948B1760E270E087E891E054
:100610000E948B1762E270E08CE891E00E948B17D9
:1006200062E270E08CE891E00E948B1764E270E077
:1006300080E991E00E948B1764E270E080E991E02C
:100640000E948B1767E270E084E991E00E948B17AB
:1006500067E270E084E991E00E948B176AE270E043
:1006600086E991E00E948B176AE270E086E991E0EA
:100670000E948B176EE270E089E991E00E948B176F
:100680006EE270E089E991E00E948B1763E370E00D
:100690008AE991E00E948B1763E370E08AE991E0B8
:1006A0000E948B1769E370E08CE991E00E948B1740
:1006B00069E370E08CE991E00E948B176EE370E0D3
:1006C0008CE991E00E948B176EE370E08CE991E079
:1006D0000E948B1768E470E08CE991E00E948B1710
:1006E00068E470E08CE991E00E948B1765E570E0AA
:1006F0008DE991E00E948B1765E570E08DE991E04E
:100700000E948B1764E670E08DE991E00E948B17E0
:1007100064E670E08DE991E00E948B176AE770E073
:100720008CE991E00E948B176AE770E08CE991E018
:100730000E948B176FE870E08CE991E00E948B17A4
:100740006FE870E08CE991E00E948B1761EB70E03C
:100750008CE991E00E948B1761EB70E08CE991E0ED
:100760000E948B1760EC70E08CE991E00E948B177F
:1007700060EC70E08CE991E00E948B176BEC70E00C
:100780008DE991E00E948B176BEC70E08DE991E0B0
:100790000E948B1763ED70E08CE991E00E948B174B
:1007A00063ED70E08CE991E00E948B1767ED70E0DB
:1007B0008DE991E00E948B1767ED70E08DE991E083
:1007C0000E948B176AED70E08CE991E00E948B1714
:1007D0006AED70E08CE991E00E948B176EED70E09D
:1007E0008BE991E00E948B176EED70E08BE991E050
:1007F0000E948B1762EE70E08AE991E00E948B17ED
:1008000062EE70E08AE991E00E948B1766EE70E07C
:100810008AE991E00E948B1766EE70E08AE991E028
:100820000E948B176AEE70E089E991E00E948B17B5
:100830006AEE70E089E991E00E948B176EEE70E03D
:1008400088E991E00E948B176EEE70E088E991E0F4
:100850000E948B1760EF70E087E991E00E948B1790
:1008600060EF70E087E991E00E948B1763EF70E022
:1008700086E991E00E948B1763EF70E086E991E0D2
:100880000E948B1764EF70E084E991E00E948B175F
:1008900064EF70E084E991E00E948B1766EF70E0EE
:1008A00081E991E00E948B1766EF70E081E991E0A9
:1008B0000E948B1767EF70E08EE891E00E948B1723
:1008C00067EF70E08EE891E00E948B1768EF70E0B0
:1008D0008AE891E00E948B1768EF70E08AE891E067
:1008E0000E948B1769EF70E086E891E00E948B17F9
:1008F00069EF70E086E891E00E948B176AEF70E084
:1009000082E891E00E948B176AEF70E082E891E044
:100910000E948B176AEF70E08FE791E00E948B17BF
:100920006AEF70E08FE791E00E948B176AEF70E04A
:100930008AE791E00E948B176AEF70E08AE791E006
:100940000E948B176AEF70E085E791E00E948B1799
:100950006AEF70E085E791E00E948B176AEF70E024
:1009600082E791E00E948B176AEF70E082E791E0E6
:100970000E948B176AEF70E08EE691E00E948B1761
:100980006AEF70E08EE691E00E948B176AEF70E0EC
:1009900088E691E00E948B176AEF70E088E691E0AC
:1009A0000E948B176AEF70E083E691E00E948B173C
:1009B0006AEF70E083E691E00E948B1769EF70E0C8
:1009C0008EE591E00E948B1769EF70E08EE591E073
:1009D0000E948B1768EF70E089E591E00E948B1709
:1009E00068EF70E089E591E00E948B1767EF70E097
:1009F00085E591E00E948B1767EF70E085E591E057
:100A00000E948B1764EF70E081E591E00E948B17E4
:100A100064EF70E081E591E00E948B1762EF70E077
:100A20008EE491E00E948B1762EF70E08EE491E01B
:100A30000E948B176FEE70E08CE491E00E948B17A0
:100A40006FEE70E08CE491E00E948B176AEE70E02C
:100A50008BE491E00E948B176AEE70E08BE491E0EA
:100A60000E948B1767EE70E08AE491E00E948B177A
:100A700067EE70E08AE491E00E948B1763EE70E00D
:100A800089E491E00E948B1763EE70E089E491E0C5
:100A90000E948B176FED70E089E491E00E948B1744
:100AA0006FED70E089E491E00E948B176CED70E0CF
:100AB00088E491E00E948B176CED70E088E491E08F
:100AC0000E948B176AED70E087E491E00E948B171B
:100AD0006AED70E087E491E00E948B1765ED70E0AD
:100AE00087E491E00E948B1765ED70E087E491E068
:100AF0000E948B1768EC70E087E491E00E948B17EE
:100B000068EC70E087E491E00E948B176EEB70E078
:100B100087E491E00E948B176EEB70E087E491E030
:100B20000E948B176DE370E087E491E00E948B17C1
:100B30006DE370E087E491E00E948B1768E370E05A
:100B400088E491E00E948B1768E370E088E491E00C
:100B50000E948B1763E370E089E491E00E948B1799
:100B600063E370E089E491E00E948B1760E370E03A
:100B70008AE491E00E948B1760E370E08AE491E0E0
:100B80000E948B176BE270E08CE491E00E948B175F
:100B90006BE270E08CE491E00E948B1768E270E0F9
:100BA0008EE491E00E948B1768E270E08EE491E0A1
:100BB0000E948B1765E270E080E591E00E948B1740
:100BC00065E270E080E591E00E948B1763E270E0DF
:100BD00083E591E00E948B1763E270E083E591E08A
:100BE0000E948B1762E270E086E591E00E948B170D
:100BF00062E270E086E591E00E948B1760E270E0AF
:100C00008BE591E00E948B1760E270E08BE591E04C
:100C10000E948B176FE170E08FE591E00E948B17C7
:100C20006FE170E08FE591E00E948B176FE170E05B
:100C300083E691E00E948B176FE170E083E691E01C
:100C40000E948B176EE170E087E691E00E948B179F
:100C50006EE170E087E691E00E948B176EE170E034
:100C60008EE691E00E948B176EE170E08EE691E0D7
:100C70000E948B176EE170E082E791E00E948B1773
:100C80006DED70E089E591E00E948B176FED70E0EB
:100C90008BE591E00E948B176FED70E08BE591E0A2
:100CA0000E948B1760EE70E08DE591E00E948B173B
:100CB00060EE70E08DE591E00E948B1761EE70E0D0
:100CC00080E691E00E948B1761EE70E080E691E093
:100CD0000E948B1762EE70E089E691E00E948B170C
:100CE00062EE70E089E691E00E948B1762EE70E0A0
:100CF0008DE791E00E948B1762EE70E08DE791E046
:100D00000E948B1761EE70E080E891E00E948B17E3
:100D100061EE70E080E891E00E948B1761EE70E078
:100D200082E891E00E948B1761EE70E082E891E02A
:100D30000E948B1760EE70E088E891E00E948B17AC
:100D400060EE70E088E891E00E948B176FED70E034
:100D500089E891E00E948B176FED70E089E891E0DF
:100D60000E948B176DED70E08AE891E00E948B176E
:100D70006DED70E08AE891E00E948B176BEE70E0F9
:100D800082E991E00E948B176BEE70E082E991E0BE
:100D90000E948B176EEE70E080E991E00E948B1745
:100DA0006EEE70E080E991E00E948B176FEE70E0CC
:100DB0008EE891E00E948B176FEE70E08EE891E074
:100DC0000E948B1760EF70E089E891E00E948B171A
:100DD00060EF70E089E891E00E948B1761EF70E0AE
:100DE00080E891E00E948B1761EF70E080E891E06D
:100DF0000E948B1762EF70E08BE791E00E948B17E7
:100E000062EF70E08BE791E00E948B1763EF70E078
:100E100087E691E00E948B1763EF70E087E691E030
:100E20000E948B1762EF70E081E691E00E948B17C1
:100E300062EF70E081E691E00E948B1761EF70E055
:100E40008DE591E00E948B1761EF70E08DE591E0F8
:100E50000E948B1760EF70E08AE591E00E948B178B
:100E600060EF70E08AE591E00E948B176FEE70E012
:100E700087E591E00E948B176FEE70E087E591E0C7
:100E80000E948B176EEE70E085E591E00E948B1753
:100E90006EEE70E085E591E00E948B176DEE70E0DC
:100EA00083E591E00E948B176DEE70E083E591E0A1
:100EB0000E948B176BEE70E081E591E00E948B172A
:100EC0006BEE70E081E591E00E948B176DED70E0B4
:100ED00089E591E00E948B176DED70E089E591E066
:100EE0000E948B176DED70E08AE591E00E948B17F0
:100EF0006DED70E08AE591E00E948B176CED70E07B
:100F00008BE591E00E948B176CED70E08BE591E032
:100F10000E948B176CED70E082E691E00E948B17C7
:100F20006CED70E082E691E00E948B176DED70E051
:100F300086E691E00E948B176DED70E086E691E009
:100F40000E948B176DED70E08AE791E00E948B178D
:100F50006DED70E08AE791E00E948B176CED70E018
:100F600080E891E00E948B176CED70E080E891E0E2
:100F70000E948B176CED70E088E891E00E948B175F
:100F80006CED70E088E891E00E948B176DED70E0E9
:100F900089E891E00E948B176DED70E089E891E09F
:100FA0000E948B176DED70E08AE891E00E948B172C
:100FB00062EE70E080E591E00E948B176AED70E0D0
:100FC00085E591E00E948B176AED70E085E591E080
:100FD0000E948B1768ED70E086E591E00E948B1708
:100FE00068ED70E086E591E00E948B1767ED70E098
:100FF00088E591E00E948B1767ED70E088E591E04D
:101000000E948B1761ED70E088E591E00E948B17DC
:1010100061ED70E088E591E00E948B176AEC70E06A
:1010200088E591E00E948B176AEC70E088E591E01A
:101030000E948B1763EC70E088E591E00E948B17AB
:1010400063EC70E088E591E00E948B176CEB70E038
:1010500088E591E00E948B176CEB70E088E591E0E9
:101060000E948B176DEB70E086E591E00E948B1774
:101070006DEB70E086E591E00E948B176EEB70E0FF
:1010800084E591E00E948B176EEB70E084E591E0BF
:101090000E948B1761EC70E081E591E00E948B1754
:1010A00061EC70E081E591E00E948B1764EC70E0E8
:1010B0008EE491E00E948B1764EC70E08EE491E086
:1010C0000E948B1766EC70E08EE491E00E948B1713
:1010D00066EC70E08EE491E00E948B176BEC70E0A0
:1010E0008EE491E00E948B176BEC70E08EE491E04F
:1010F0000E948B1762ED70E08FE491E00E948B17E5
:1011000062ED70E08FE491E00E948B176AED70E071
:101110008FE491E00E948B176AED70E08FE491E01C
:101120000E948B1762EE70E080E591E00E948B17C1
:1011300060EC70E08EE491E00E948B176DEB70E044
:1011400081E591E00E948B176DEB70E081E591E005
:101150000E948B176BEB70E084E591E00E948B1787
:101160006BEB70E084E591E00E948B176AEB70E016
:1011700086E591E00E948B176AEB70E086E591E0CE
:101180000E948B1769EB70E088E591E00E948B1755
:1011900069EB70E088E591E00E948B1766EB70E0E8
:1011A00087E591E00E948B1766EB70E087E591E0A0
:1011B0000E948B176CE970E087E591E00E948B1725
:1011C0006CE970E087E591E00E948B176BE970E0B5
:1011D00084E591E00E948B176BE970E084E591E073
:1011E0000E948B1769E970E08DE491E00E948B17F3
:1011F00069E970E08DE491E00E948B1762EB70E08A
:101200008DE491E00E948B1762EB70E08DE491E039
:101210000E948B1760EC70E08EE491E00E948B17C7
:1012200065E970E08DE491E00E948B1766E970E05B
:101230008FE491E00E948B1766E970E08FE491E003
:101240000E948B1767E970E083E591E00E948B179D
:1012500067E970E083E591E00E948B1768E970E030
:1012600085E591E00E948B1768E970E085E591E0E3
:101270000E948B1769E970E087E591E00E948B1767
:1012800069E970E087E591E00E948B176EE870E0F5
:1012900087E591E00E948B176EE870E087E591E0AA
:1012A0000E948B1768E870E086E591E00E948B173A
:1012B00068E870E086E591E00E948B1762E870E0D4
:1012C00085E591E00E948B1762E870E085E591E08A
:1012D0000E948B176BE770E083E591E00E948B170B
:1012E0006BE770E083E591E00E948B1762E770E0A6
:1012F00081E591E00E948B1762E770E081E591E063
:101300000E948B176DE670E08FE491E00E948B17CE
:101310006DE670E08FE491E00E948B1767E670E065
:101320008EE491E00E948B1767E670E08EE491E016
:101330000E948B176CE670E08DE491E00E948B17A1
:101340006CE670E08DE491E00E948B1761E770E03D
:101350008DE491E00E948B1761E770E08DE491E0ED
:101360000E948B1769E770E08DE491E00E948B1773
:1013700069E770E08DE491E00E948B1767E870E008
:101380008DE491E00E948B1767E870E08DE491E0B6
:101390000E948B1765E970E08DE491E00E948B1745
:1013A0006DE670E08CE491E00E948B176EE670E0D1
:1013B0008DE491E00E948B176EE670E08DE491E081
:1013C0000E948B1760E770E08DE491E00E948B171C
:1013D00060E770E08DE491E00E948B1760E770E0B9
:1013E0008CE491E00E948B1760E770E08CE491E060
:1013F0000E948B1761E770E08CE491E00E948B17EC
:1014000061E770E08CE491E00E948B1764E770E084
:1014100086E491E00E948B1764E770E086E491E037
:101420000E948B1761E770E086E491E00E948B17C1
:1014300061E770E086E491E00E948B1760E770E05E
:1014400087E491E00E948B1760E770E087E491E009
:101450000E948B176EE670E089E491E00E948B1782
:101460006EE670E089E491E00E948B176DE670E013
:101470008BE491E00E948B176DE670E08BE491E0C5
:101480000E948B176DE670E08CE491E00E948B1750
:101490006FE770E087E591E00E948B176EE770E0E0
:1014A0008CE591E00E948B176EE770E08CE591E08F
:1014B0000E948B176DE770E08FE591E00E948B171B
:1014C0006DE770E08FE591E00E948B176CE770E0AC
:1014D00083E691E00E948B176CE770E083E691E071
:1014E0000E948B176BE770E08BE691E00E948B17F0
:1014F0006BE770E08BE691E00E948B176AE770E083
:1015000086E791E00E948B176AE770E086E791E03A
:101510000E948B176BE770E08DE791E00E948B17BC
:101520006BE770E08DE791E00E948B176CE770E04D
:1015300081E891E00E948B176CE770E081E891E010
:101540000E948B176DE770E085E891E00E948B1791
:101550006DE770E085E891E00E948B176EE770E020
:101560008BE891E00E948B176EE770E08BE891E0CA
:101570000E948B176FE770E08CE891E00E948B1758
:101580006FE770E08CE891E00E948B176BE770E0EA
:101590008DE891E00E948B176BE770E08DE891E099
:1015A0000E948B1766E770E08FE891E00E948B172E
:1015B00066E770E08FE891E00E948B1762E770E0C9
:1015C00080E991E00E948B1762E770E080E991E08A
:1015D0000E948B1762E670E084E991E00E948B170D
:1015E00062E670E084E991E00E948B1760E670E0AB
:1015F00081E991E00E948B1760E670E081E991E05B
:101600000E948B176DE570E08DE891E00E948B17CA
:101610006DE570E08DE891E00E948B176CE570E05D
:1016200088E891E00E948B176CE570E088E891E013
:101630000E948B176BE570E083E891E00E948B17A6
:101640006BE570E083E891E00E948B176AE570E03B
:101650008EE791E00E948B176AE570E08EE791E0DB
:101660000E948B1769E570E089E691E00E948B1774
:1016700069E570E089E691E00E948B176AE570E009
:101680008FE591E00E948B176AE570E08FE591E0AD
:101690000E948B176CE570E08AE591E00E948B1741
:1016A0006CE570E08AE591E00E948B176DE570E0D3
:1016B00085E591E00E948B176DE570E085E591E08E
:1016C0000E948B176FE570E082E591E00E948B1716
:1016D0006FE570E082E591E00E948B1761E670E0B3
:1016E0008FE491E00E948B1761E670E08FE491E057
:1016F0000E948B176FE670E083E591E00E948B17E4
:101700006FE670E083E591E00E948B1765E770E07B
:1017100085E591E00E948B1765E770E085E591E033
:101720000E948B176CE770E086E591E00E948B17B2
:101730006CE770E086E591E00E948B176FE770E040
:1017400087E591E00E948B1766E670E086E991E0FC
:101750000E948B176BE670E084E991E00E948B1782
:101760006BE670E084E991E00E948B1760E770E01F
:1017700083E991E00E948B1760E770E083E991E0D4
:101780000E948B1765E770E081E991E00E948B175A
:1017900065E770E081E991E00E948B176AE770E0ED
:1017A00080E991E00E948B176AE770E080E991E0A0
:1017B0000E948B176DE770E08FE891E00E948B1715
:1017C0006DE770E08FE891E00E948B1760E870E0B1
:1017D0008EE891E00E948B1760E870E08EE891E05F
:1017E0000E948B1765E870E08EE891E00E948B17ED
:1017F00065E870E08EE891E00E948B176EE870E07B
:101800008DE891E00E948B176EE870E08DE891E022
:101810000E948B1769E970E08DE891E00E948B17B8
:1018200069E970E08DE891E00E948B1769E970E04A
:101830008EE891E00E948B1769E970E08EE891E0F4
:101840000E948B1768E970E080E991E00E948B1795
:1018500068E970E080E991E00E948B1767E970E029
:1018600083E991E00E948B1767E970E083E991E0DA
:101870000E948B1766E970E085E991E00E948B1762
:1018800066E970E085E991E00E948B1765E970E0F8
:1018900086E991E00E948B1765E970E086E991E0A6
:1018A0000E948B1766E770E087E991E00E948B1732
:1018B00066E770E087E991E00E948B176AE670E0C6
:1018C00086E991E00E948B176AE670E086E991E074
:1018D0000E948B1766E670E086E991E00E948B1704
:1018E0006EE670E086E991E00E948B176DE670E08D
:1018F00086E991E00E948B176DE670E086E991E041
:101900000E948B176CE670E088E991E00E948B17CB
:101910006CE670E088E991E00E948B176CE670E05D
:1019200089E991E00E948B176CE670E089E991E00B
:101930000E948B176DE670E08AE991E00E948B1798
:101940006DE670E08AE991E00E948B176EE670E028
:101950008BE991E00E948B176EE670E08BE991E0D5
:101960000E948B176FE670E08CE991E00E948B1764
:101970006FE670E08CE991E00E948B1760E770E001
:101980008DE991E00E948B1760E770E08DE991E0AE
:101990000E948B1761E770E08DE991E00E948B1740
:1019A00061E770E08DE991E00E948B1762E770E0DB
:1019B0008DE991E00E948B1762E770E08DE991E07C
:1019C0000E948B1760E770E088E991E00E948B1716
:1019D00060E770E088E991E00E948B176FE670E0A5
:1019E00088E991E00E948B176FE670E088E991E04A
:1019F0000E948B176EE670E086E991E00E948B17DB
:101A00006CE970E08CE891E00E948B176CE970E063
:101A10008EE891E00E948B176CE970E08EE891E00F
:101A20000E948B176BE970E081E991E00E948B17AF
:101A30006BE970E081E991E00E948B176AE970E040
:101A400084E991E00E948B176AE970E084E991E0F3
:101A50000E948B1769E970E086E991E00E948B177C
:101A600069E970E086E991E00E948B1760EC70E014
:101A700086E991E00E948B1760EC70E086E991E0C6
:101A80000E948B176DEB70E082E991E00E948B174A
:101A90006DEB70E082E991E00E948B176BEB70E0D8
:101AA0008FE891E00E948B176BEB70E08FE891E07C
:101AB0000E948B176AEB70E08DE891E00E948B1713
:101AC0006AEB70E08DE891E00E948B1769EB70E0A3
:101AD0008BE891E00E948B1769EB70E08BE891E056
:101AE0000E948B176BEA70E08CE891E00E948B17E4
:101AF0006BEA70E08CE891E00E948B176CE970E073
:101B00008CE891E00E948B176CEB70E08BE891E021
:101B10000E948B1769EC70E08BE891E00E948B17B4
:101B200069EC70E08BE891E00E948B1766ED70E045
:101B30008BE891E00E948B1766ED70E08BE891E0F6
:101B40000E948B1768ED70E08CE891E00E948B1783
:101B500068ED70E08CE891E00E948B1769ED70E011
:101B60008EE891E00E948B1769ED70E08EE891E0BD
:101B70000E948B176CED70E080E991E00E948B175A
:101B80006CED70E080E991E00E948B176FED70E0E2
:101B900082E991E00E948B176FED70E082E991E09D
:101BA0000E948B1762EE70E084E991E00E948B172F
:101BB00062EE70E084E991E00E948B1769ED70E0BD
:101BC00084E991E00E948B1769ED70E084E991E06F
:101BD0000E948B176FEC70E085E991E00E948B17F3
:101BE0006FEC70E085E991E00E948B1768EC70E083
:101BF00085E991E00E948B1768EC70E085E991E03F
:101C00000E948B1764EC70E085E991E00E948B17CD
:101C100064EC70E085E991E00E948B1761EC70E064
:101C200083E991E00E948B1761EC70E083E991E019
:101C30000E948B176EEB70E08FE891E00E948B178B
:101C40006EEB70E08FE891E00E948B176DEB70E017
:101C50008DE891E00E948B176DEB70E08DE891E0CC
:101C60000E948B176CEB70E08BE891E00E948B1761
:101C70006CE570E080E591E00E948B176AE570E00A
:101C80008FE491E00E948B176AE570E08FE491E0A9
:101C90000E948B1767E570E08FE491E00E948B173C
:101CA00067E570E08FE491E00E948B176DE370E0D0
:101CB0008FE491E00E948B176DE370E08FE491E078
:101CC0000E948B1766E370E080E591E00E948B171D
:101CD00066E370E080E591E00E948B1760E370E0BE
:101CE00081E591E00E948B1760E370E081E591E06F
:101CF0000E948B176CE270E081E591E00E948B17E7
:101D00006CE270E081E591E00E948B176AE270E07E
:101D100084E591E00E948B176AE270E084E591E02F
:101D20000E948B1768E270E089E591E00E948B17B2
:101D300068E270E089E591E00E948B1766E270E04E
:101D40008DE591E00E948B1766E270E08DE591E0F1
:101D50000E948B1765E270E08FE591E00E948B177F
:101D600065E270E08FE591E00E948B1764E270E01D
:101D70008FE591E00E948B1764E270E08FE591E0BF
:101D80000E948B1763E270E080E691E00E948B175F
:101D900063E270E080E691E00E948B1762E270E0FF
:101DA00082E691E00E948B1762E270E082E691E0A9
:101DB0000E948B1761E270E085E691E00E948B172C
:101DC00061E270E085E691E00E948B1761E270E0CD
:101DD0008BE791E00E948B1761E270E08BE791E066
:101DE0000E948B1762E270E08FE791E00E948B17F0
:101DF00062E270E08FE791E00E948B1762E270E090
:101E000082E891E00E948B1762E270E082E891E044
:101E10000E948B1763E270E083E891E00E948B17C9
:101E200063E270E083E891E00E948B1764E270E067
:101E300085E891E00E948B1764E270E085E891E00C
:101E40000E948B1766E270E085E891E00E948B1794
:101E500066E270E085E891E00E948B1767E270E02F
:101E600086E891E00E948B1767E270E086E891E0D7
:101E70000E948B1767E270E089E891E00E948B175F
:101E800067E270E089E891E00E948B1769E270E0F8
:101E90008CE891E00E948B1769E270E08CE891E099
:101EA0000E948B176AE270E08FE891E00E948B1726
:101EB0006AE270E08FE891E00E948B176BE270E0BD
:101EC00081E991E00E948B176BE270E081E991E07B
:101ED0000E948B176CE270E083E991E00E948B17FF
:101EE0006CE270E083E991E00E948B1764E370E09C
:101EF00083E991E00E948B1764E370E083E991E04D
:101F00000E948B176AE370E084E991E00E948B17CE
:101F10006AE370E084E991E0FED761E470E084E96F
:101F200091E0F9D761E470E084E991E0F4D76CE4E2
:101F300070E085E991E0EFD76CE470E085E991E02D
:101F4000EAD76FE570E085E991E0E5D76FE570E0ED
:101F500085E991E0E0D76DE570E083E991E0DBD7BA
:101F60006DE570E083E991E0D6D76AE570E081E93C
:101F700091E0D1D76AE570E081E991E0CCD768E5DE
:101F800070E08EE891E0C7D768E570E08EE891E0F8
:101F9000C2D765E570E087E891E0BDD765E570E000
:101FA00087E891E0B8D764E570E083E891E0B3D7C3
:101FB00064E570E083E891E0AED763E570E08FE719
:101FC00091E0A9D763E570E08FE791E0A4D763E5DE
:101FD00070E08AE791E09FD763E570E08AE791E0DF
:101FE0009AD762E570E086E791E095D762E570E008
:101FF00086E791E090D762E570E086E691E08BD7C6
:1020000062E570E086E691E086D763E570E082E6FF
:1020100091E081D763E570E082E691E07CD764E5EA
:1020200070E08FE591E077D764E570E08FE591E0AF
:1020300072D764E570E08DE591E06DD764E570E0FE
:102040008DE591E068D765E570E08BE591E063D7B9
:1020500065E570E08BE591E05ED766E570E089E5C7
:1020600091E059D766E570E089E591E054D766E5DF
:1020700070E087E591E04FD766E570E087E591E095
:102080004AD768E570E085E591E045D768E570E0FE
:1020900085E591E040D769E570E083E591E03BD7C5
:1020A00069E570E083E591E036D76BE570E081E5A6
:1020B00091E031D76BE570E081E591E02CD76CE5DC
:1020C00070E080E591E027D766E570E089E591E072
:1020D00022D76BE470E08AE591E01DD76BE470E0F5
:1020E0008AE591E018D760E470E08BE591E013D7C2
:1020F00060E470E08BE591E00ED768E370E08CE57A
:1021000091E009D768E370E08CE591E004D76EE2D6
:1021100070E08EE591E0FFD66EE270E08EE591E032
:10212000FAD665E270E080E691E0F5D665E270E00F
:1021300080E691E0F0D663E270E080E691E0EBD6D5
:1021400063E270E083E891E0E6D667E270E084E85D
:1021500091E0E1D667E270E084E891E0DCD66DE2E0
:1021600070E085E891E0D7D66DE270E085E891E017
:10217000D2D663E370E086E891E0CDD663E370E009
:1021800086E891E0C8D669E370E087E891E0C3D6BD
:1021900069E370E087E891E0BED66FE370E088E81D
:1021A00091E0B9D66FE370E088E891E0B4D666E4D8
:1021B00070E089E891E0AFD666E470E089E891E0EC
:1021C000AAD66DE470E08AE891E0A5D66DE470E0EF
:1021D0008AE891E0A0D662E570E08BE891E09BD6BA
:1021E00062E570E08BE891E096D667E570E08BE8F9
:1021F00091E091D66FE570E085E991E08CD661E6DB
:1022000070E086E991E087D661E670E086E991E0CA
:1022100082D666E670E086E991E07DD66CE570E0F6
:1022200080E591E078D66EE570E08EE491E073D6BB
:102230006EE570E08EE491E06ED661E670E08EE4CB
:1022400091E069D661E670E08EE491E064D663E6E1
:1022500070E08DE491E05FD663E670E08DE491E09C
:102260005AD667E670E08EE491E055D66CED70E0EA
:1022700088E891E050D66DED70E089E891E04BD6AA
:102280006DED70E089E891E046D66CEB70E08BE88C
:1022900091E041D66CEB70E08BE891E03CD664EDC8
:1022A00070E088E891E037D664ED70E088E891E06E
:1022B00032D669EC70E088E891E02DD669EC70E0E8
:1022C00088E891E028D66EEB70E089E891E023D6AB
:1022D0006EEB70E089E891E01ED661EB70E089E872
:1022E00091E019D661EB70E089E891E014D666EAD6
:1022F00070E08AE891E00FD666EA70E08AE891E043
:102300000AD660E970E08AE891E005D660E970E0FD
:102310008AE891E000D668E870E08BE891E0FBD5B0
:1023200068E870E08BE891E0F6D563E870E08CE84F
:1023300091E0F1D563E870E08CE891E0ECD56FE7CF
:1023400070E08CE891E0E7D56CED70E08BE591E012
:10235000E2D56FEB70E08BE591E0DDD56FEB70E0DF
:102360008BE591E0D8D566EB70E08AE591E0D3D5B6
:1023700066EB70E08AE591E0CED56DEA70E08AE523
:1023800091E0C9D56DEA70E08AE591E0C4D564EAD0
:1023900070E089E591E0BFD564EA70E089E591E0FD
:1023A000BAD56CE870E089E591E0B5D56CE870E0ED
:1023B00089E591E0B0D567E870E088E591E0ABD5BC
:1023C00067E870E088E591E0A6D562E870E088E50E
:1023D00091E0A1D562E870E088E591E09CD56FE7D7
:1023E00070E087E591E097D56CE270E081E591E0DF
:1023F00092D56EE270E08FE491E08DD56EE270E0F0
:102400008FE491E088D560E370E08EE491E083D5BD
:1024100060E370E08EE491E07ED562E370E08DE4ED
:1024200091E079D562E370E08DE491E074D563E3E7
:1024300070E08CE491E06FD563E370E08CE491E0B0
:102440006AD563E370E08AE491E065D563E370E008
:102450008AE491E060D561E370E08BE491E05BD5C4
:1024600061E370E08BE491E056D56EE270E08DE4BC
:1024700091E051D56EE270E08DE491E04CD56BE2D5
:1024800070E08FE491E047D56BE270E08FE491E07B
:1024900042D569E270E082E591E03DD569E270E005
:1024A00082E591E038D567E270E085E591E033D5CB
:1024B00067E270E085E591E02ED565E270E089E5A0
:1024C00091E029D565E270E089E591E024D564E2E8
:1024D00070E08CE591E01FD564E270E08CE591E05E
:1024E0001AD564E270E08FE591E015D564E270E002
:1024F00085E891E010D564E270E087E891E00BD5C3
:1025000064E270E087E891E006D565E270E088E873
:1025100091E001D565E270E088E891E0FCD465E2E5
:1025200070E08AE891E0F7D465E270E08AE891E033
:10253000F2D466E270E08BE891E0EDD466E270E000
:102540008BE891E0E8D466E270E08DE891E0E3D4B6
:1025500066E270E08DE891E0DED467E270E08EE83C
:1025600091E0D9D467E270E08EE891E0D4D468E2DB
:1025700070E080E991E0CFD468E270E080E991E01A
:10258000CAD469E270E081E991E0C5D469E270E003
:1025900081E991E0C0D46AE270E083E991E0BBD4C4
:1025A0006AE270E083E991E0B6D46CE270E084E91D
:1025B00091E0B1D46CE270E084E991E0ACD46DE2DA
:1025C00070E085E991E0A7D46DE270E085E991E0E3
:1025D000A2D46EE270E086E991E09DD46EE270E0F4
:1025E00086E991E098D460E370E087E991E093D4C4
:1025F00060E370E087E991E08ED461E370E088E900
:1026000091E089D461E370E088E991E084D463E3E8
:1026100070E089E991E07FD463E370E089E991E0BB
:102620007AD463E370E088E991E075D463E370E005
:1026300088E991E070D462E370E087E991E06BD4BF
:1026400062E370E087E991E066D460E370E085E9D9
:1026500091E061D460E370E085E991E05CD46DE2E3
:1026600070E084E991E057D46DE270E084E991E094
:1026700052D46CE270E083E991E04DD460E070E008
:1026800080E091E223D460E070E081EA94E01ED41F
:1026900038D461E070E080E094E118D440E752E083
:1026A00068E870E08AE090E045D52BD461E070E006
:1026B00080E094E10BD446E752E06CEC70E08AE0F5
:1026C00090E038D51ED461E070E080E094E1FED364
:1026D0004CE752E068E870E088E790E02BD511D431
:1026E00061E070E080E094E1F1D343E852E06CEC0B
:1026F00070E088E790E01ED587E892E02DD260E098
:1027000070E0CB01E3D361E07FEF8FEF9FEFDED38B
:102710008091B503811125D34091BE035091BF0331
:1027200068EE74E280E190E00ED3FFD12091BE0309
:102730003091BF038217930719F08F3F9F40A9F78D
:102740001F910F91FF90EF90DF90CF90BF90AF90CF
:102750000895CF92DF92EF92FF920F931F93CF9342
:10276000DF936C017A018B01C0E0D0E0CE15DF056C
:1027700081F0D8016D918D01D601ED91FC91019010
:10278000F081E02DC6011995892B11F02196EECF2D
:102790007E01C701DF91CF911F910F91FF90EF90C4
:1027A000DF90CF900895FC01538D448D252F30E0AC
:1027B000842F90E0821B930B541710F0CF9608954E
:1027C00001970895FC01918D828D981761F0828D9B
:1027D000DF01A80FB11D5D968C91928D9F5F9F7355
:1027E000928F90E008958FEF9FEF0895FC01918DF7
:1027F000828D981731F0828DE80FF11D858D90E064
:1028000008958FEF9FEF08950E94A22085E193E045
:1028100028D521E0892B09F420E0822F0895EF923A
:10282000FF920F931F93CF93DF93EC0181E0888F8A
:102830009B8D8C8D981305C0E889F989808185FD71
:1028400025C0F62E0B8D10E00F5F1F4F0F73112761
:10285000E02E8C8DE8120BC00FB607FCFACFE8898A
:10286000F989808185FFF5CFCE019DD5F2CF8B8D83
:10287000FE01E80FF11DE35AFF4FF0829FB7F89475
:102880000B8FEA89FB89808180620AC09FB7F89428
:10289000EE89FF896083E889F9898081837080648B
:1028A00080839FBF81E090E0DF91CF911F910F91D6
:1028B000FF90EF900895CF93DF93EC01888D8823EC
:1028C000C1F0EA89FB89808185FD05C0A889B989A5
:1028D0008C9186FD0EC00FB607FCF5CF808185FF79
:1028E000F2CFA889B9898C9185FFEDCFCE015BD558
:1028F000E8CFDF91CF9108953FB7F894809111030D
:1029000090911203A0911303B091140326B5A89BD4
:1029100005C02F3F19F00196A11DB11D3FBFBA2F71
:10292000A92F982F8827820F911DA11DB11DBC01D1
:10293000CD0142E0660F771F881F991F4A95D1F796
:1029400008951F920F920FB60F9211242F933F9369
:102950008F939F93AF93BF9380910D0390910E033C
:10296000A0910F03B091100330910C0323E0230FCB
:102970002D3720F40196A11DB11D05C026E8230FB7
:102980000296A11DB11D20930C0380930D0390931B
:102990000E03A0930F03B093100380911103909145
:1029A0001203A0911303B09114030196A11DB11D50
:1029B0008093110390931203A0931303B093140315
:1029C000BF91AF919F918F913F912F910F900FBE2B
:1029D0000F901F9018951F920F920FB60F9211240F
:1029E0000BB60F922F933F934F935F936F937F9309
:1029F0008F939F93AF93BF93EF93FF9385E193E002
:102A0000D2D4FF91EF91BF91AF919F918F917F9120
:102A10006F915F914F913F912F910F900BBE0F904F
:102A20000FBE0F901F9018951F920F920FB60F9226
:102A300011240BB60F922F938F939F93EF93FF93D5
:102A4000E0912503F09126038081E0912B03F09122
:102A50002C0382FD12C0908180912E038F5F8F73B3
:102A600020912F03821751F0E0912E03F0E0EB5EEE
:102A7000FC4F958F80932E0301C08081FF91EF91D1
:102A80009F918F912F910F900BBE0F900FBE0F90C3
:102A90001F9018958F929F92AF92BF92CF92DF9224
:102AA000EF92FF9229DF4B015C0184E1C82ED12C0B
:102AB000E12CF12C21DFDC01CB0188199909AA094D
:102AC000BB09883E9340A105B105A0F321E0C21ADD
:102AD000D108E108F10888EE880E83E0981EA11C59
:102AE000B11CC114D104E104F10421F7FF90EF906F
:102AF000DF90CF90BF90AF909F908F9008958CB54E
:102B00008C7F8CBD8DB581608DBD0895CF93AB0159
:102B1000BC0182EB93E029D680E020D6C82F82EB5F
:102B200093E018D68C2FCF910895CF93DF9344EE86
:102B300054E260E170E082EB93E017D680E00ED6BD
:102B4000D82F80E00BD6C82F82EB93E003D68D2FD1
:102B50009C2FDF91CF910895009761F0FC010190C7
:102B60000020E9F73197AF01481B590BBC0185E103
:102B700093E0EFCD80E090E00895CF93DF93ECDF1A
:102B8000EC0187E892E0E8DF8C0F9D1FDF91CF9189
:102B900008958F929F92AF92BF920F931F93CF93FE
:102BA000DF93CDB7DEB7A1970FB6F894DEBF0FBEA7
:102BB000CDBF19A2423008F44AE08E010F5D1F4FCD
:102BC000842E912CA12CB12CA50194010E94782077
:102BD000E62FB901CA0101501109EA3014F4E05D91
:102BE00001C0E95CD801EC93232B242B252B61F742
:102BF000C801B2DFA1960FB6F894DEBF0FBECDBFFD
:102C0000DF91CF911F910F91BF90AF909F908F90C8
:102C10000895362F90E0FC01E853FE4F4491FC01EB
:102C2000EE57FE4F2491FC01E45CFE4F94919923F2
:102C300009F46CC0442309F455C050E0FA013197FF
:102C4000E231F10508F04EC08827EE58FF4F8F4F54
:102C50000C949A20809180008F7707C0809180002B
:102C60008F7D03C080918000877F809380003AC071
:102C700084B58F7702C084B58F7D84BD33C08091C9
:102C8000B0008F7703C08091B0008F7D8093B0003B
:102C900029C0809190008F7707C0809190008F7D30
:102CA00003C080919000877F809390001BC080912B
:102CB000A0008F7707C08091A0008F7D03C0809116
:102CC000A000877F8093A0000DC0809120018F77A6
:102CD00007C0809120018F7D03C080912001877FF4
:102CE00080932001E92FF0E0EE0FFF1FEE5DFE4F15
:102CF000A591B4919FB7F894311104C08C9120959F
:102D0000282302C0EC912E2B2C939FBF08951F9374
:102D1000CF93DF93EB01182F60E08091B20379DF4E
:102D2000812F80681BD58D2F19D58C2FDF91CF91E6
:102D30001F9114C5CF93C42FEADF8C2F0FD582EBE0
:102D400093E0CF9107C5CF93DF93D42FC52FDFDF5B
:102D50008D2F04D58C2F02D582EB93E0DF91CF919C
:102D6000F9C4CF92DF92EF92FF92CF93DF9382EB81
:102D700093E0F0D4C2EBD3E0CC84DD8468EE74E25F
:102D800080E190E0C4DF8C2DE9D48D2DE7D480E084
:102D9000E5D480E0E3D4CE01DDD41B82DF91CF9176
:102DA000FF90EF90DF90CF900895CF93DF93C2EB29
:102DB000D3E06C857D85CB01A0E0B0E0BC01CD0106
:102DC00070588F4E9F4FA3DF81E08B8380E090E0AF
:102DD000DF91CF9108950F931F93CF93DF938C01D1
:102DE0008091B503882321F0BCDF81E08093B50397
:102DF0004091BE035091BF0368EE74E280E190E021
:102E0000A2DFCCEFDFE08091C0039091C103801777
:102E10009107B0F48ADE9C012F3F8FE03807B1F0B4
:102E20008091BE039091BF03821B930B8C7F9F7098
:102E30009E01281B390B3093C1032093C003E3CFBD
:102E40008091B503882329F0B0DF03C082E390E0CE
:102E500002C080E090E0DF91CF911F910F91089523
:102E60000F931F93CF93DF93EB01182F092F8091BE
:102E7000C0039091C1030497F0F08C2F6FD48D2F75
:102E80006DD4812F6BD4802F69D48091BE03909133
:102E9000BF0304969F709093BF038093BE038091FD
:102EA000C0039091C10304979093C1038093C00322
:102EB00080E090E006C084E090E08DDF82339105F1
:102EC000E1F6DF91CF911F910F910895CF92DF929C
:102ED000EF92FF922091B503222329F0FF90EF900B
:102EE000DF90CF90BDCF6B017C015FDFC701B601E2
:102EF000B7DF7C0136DFC701FF90EF90DF90CF9006
:102F000008956AE07FEF8FEF9FEFE0DF60E070E011
:102F100081E690E0DBCF91707170E62FE295E07F63
:102F20009B0144E0369527954A95E1F7382F329575
:102F3000330F307EAC0163E0569547956A95E1F713
:102F400060E07E2F832F822B942F9068BFCF4F920B
:102F50005F926F927F92AF92BF92CF92DF92EF9289
:102F6000FF920F931F93CF93DF93EC016A017B01D4
:102F700083E0C80ED11CE11CF11CECEFCE22C11481
:102F8000D104E104F10409F4A1C08091C00390913F
:102F9000C103A0E0B0E08C159D05AE05BF0508F0AB
:102FA00062C08091B503882361F0DBDE4091BE03EF
:102FB0005091BF0368EE74E280E190E0C4DEF5DE7C
:102FC00009C04091BE035091BF0368EE74E280E1F6
:102FD00090E0B9DE4090C0035090C103612C712C89
:102FE000C414D504E604F70410F4260137018E0159
:102FF0005201C40DD51DC017D10729F0F8018191E8
:103000008F01ACD3F8CF8091BE039091BF038A0D9E
:103010009B1D9F709093BF038093BE032091C003BC
:103020003091C1032A193B093093C1032093C00397
:10303000C418D508E608F708D701C601F1E0CF1695
:10304000F8E0DF06E104F10420F080E098E0A0E081
:10305000B0E02817390708F092CFBDDE8233910522
:1030600009F08DCF35C08E01412C512C3201F80171
:1030700081918F0173D3FFEF4F1A5F0A6F0A7F0AA6
:10308000C414D504E604F70491F7D701C6010197EB
:10309000A109B1090196C80FD91F8091BE03909173
:1030A000BF038C0D9D1D9F709093BF038093BE0343
:1030B0008091C0039091C1038C199D099093C10325
:1030C0008093C003C12CD12C760159CF80E090E0D1
:1030D000DF91CF911F910F91FF90EF90DF90CF90F4
:1030E000BF90AF907F906F905F904F900895CF9278
:1030F000DF92EF92FF92CF93DF932091B5032223CB
:1031000039F0DF91CF91FF90EF90DF90CF901FCFFC
:103110006A017B01EC0149DEB701A601CE0117DF90
:10312000EC011FDECE01DF91CF91FF90EF90DF9099
:10313000CF900895EF92FF920F931F93CF93DF9359
:103140008C017B01EA016DE07FEF8FEF9FEFBEDE28
:10315000C701FF0CAA0BBB0BBC0155274427C801B4
:10316000A0E0B0E08A019B01082B192B2A2B3B2BF6
:10317000C901B801ABDE64E670E082E390E0A6DE50
:1031800067E170E080E091E0A1DEFE0101900020A7
:10319000E9F7AF014C1B5D0B60E070E0CE01DF9101
:1031A000CF911F910F91FF90EF90A1CFCF93DF931D
:1031B00090E0FC01EE57FE4F2491FC01E45CFE4FD1
:1031C0008491882361F190E0880F991FFC01E85FEA
:1031D000FE4FC591D491FC01EE5DFE4FA591B491D7
:1031E000611109C09FB7F894888120958223888354
:1031F000EC912E230BC0623061F49FB7F894888164
:10320000322F309583238883EC912E2B2C939FBFF4
:1032100006C08FB7F894E8812E2B28838FBFDF91EB
:10322000CF910895863308F0865390917B00282F24
:103230002870977F922B90937B0087708064809397
:103240007C0080917A00806480937A0080917A007B
:1032500086FDFCCF809178002091790090E0922B40
:103260000895FC01918D228D892F90E0805C9F4F05
:10327000821B91098F739927089580E090E0892B34
:1032800019F0C4DA811125C080E090E0892B41F06B
:1032900080E090E0892B21F00E94000081111CC089
:1032A00080E090E0892B41F080E090E0892B21F0D4
:1032B0000E940000811113C080E090E0892BA1F0F2
:1032C00080E090E0892B81F00E94000081110AC00B
:1032D00008950E940000D8CF0E940000E1CF0E9414
:1032E0000000EACF0C940000089585ED8093BC00A7
:1032F0008091BC0084FDFCCF10921E040895409183
:10330000FA03262F30E0240F311D21323105DCF481
:1033100020911E042430C9F4FC0180E090E086175F
:1033200058F43091FA032191DC01A652BC4FA30F4F
:10333000B11D2C930196F3CF8091FA03680F60932F
:10334000FA0380E0089581E0089582E008950895E9
:103350008FEF9FEF08958FEF9FEF08958091D9032E
:1033600090E09195819591090895CF93DF93CB01DA
:10337000EA01642FC4DFCE01DF91CF910895CF938E
:10338000DF931F92CDB7DEB7698361E0CE0101966E
:10339000B6DF81E090E00F90DF91CF91089508951E
:1033A00080E090E00895FC01848DDF01A80FB11D3D
:1033B000A35ABF4F2C91848D90E001968F7399276B
:1033C000848FA689B7892C93A089B1898C91837049
:1033D00080648C93938D848D981306C00288F38942
:1033E000E02D80818F7D808308951F920F920FB60C
:1033F0000F9211240BB60F922F933F934F935F932D
:103400006F937F938F939F93AF93BF93EF93FF93AC
:103410008091B900887F803609F49CC068F58832B5
:1034200009F45BC090F4803109F454C038F4882367
:1034300009F4F2C0883009F44DC0F1C0883109F4B4
:103440004CC0803209F45DC0EAC0803409F468C021
:1034500048F4803309F455C0883309F0E0C0809304
:103460001D04D4C0803509F44FC0883509F45DC00F
:10347000883409F0D4C0D2C0883909F4C3C0A8F494
:10348000883709F467C038F4883609F463C0803798
:1034900009F460C0C4C0883809F4B4C0803909F4A4
:1034A0005FC0803809F0BBC05BC0803B09F484C0BA
:1034B00038F4803A09F466C0883A09F47DC0AFC098
:1034C000803C09F4A3C0883C09F4A0C0883B09F4FF
:1034D00086C0A5C08091430410C0909142048091A1
:1034E0004104981770F5E091420481E08E0F8093BB
:1034F0004204F0E0EF5DFB4F80818093BB0085ECE0
:1035000082C080931D048AC0E091420481E08E0F46
:10351000809342048091BB00F0E0EF5DFB4F80831D
:1035200090914204809141046AC0E091420481E09C
:103530008E0F809342048091BB00F0E0EF5DFB4F63
:10354000808380912004811169C081E080931F04F1
:1035500084EA5DC083E080931E0410921C04CFCFE8
:1035600080911C04803208F04DC0E0911C0481E081
:103570008E0F80931C048091BB00F0E0E450FC4F60
:103580008083BDCF85EC8093BC0010921E04809197
:103590001C04803230F4E0911C04F0E0E450FC4F55
:1035A000108260911C0470E08CEF93E0E0E0F0E0AA
:1035B000199510921C0433C084E080931E0410926D
:1035C000FB031092FA03E0E0F0E019958091FA0312
:1035D000811105C081E08093FA031092DA03E09133
:1035E000FB0381E08E0F8093FB03F0E0E652FC4F7B
:1035F00080818093BB009091FB038091FA03981720
:1036000008F47DCF85E88093BC0009C085EC8093E9
:10361000BC0010921E0403C010921D0466DEFF91D0
:10362000EF91BF91AF919F918F917F916F915F913A
:103630004F913F912F910F900BBE0F900FBE0F90A7
:103640001F9018954F925F926F927F92AF92BF92A8
:10365000CF92DF92EF92FF920F931F93CF93DF935E
:10366000CDB7DEB760970FB6F894DEBF0FBECDBF03
:10367000ED82FE820F83188729873A874B875C8704
:103680006D877E878F87988B49845A844AE08E01A4
:103690000F5F1F4FB801C20171D38D819E815CDA2B
:1036A00082E093E059DA052C000C6608770877FE73
:1036B0000DC06DE285E193E0B2D866277727CB0194
:1036C00064197509860997094AE003C04AE0C301F5
:1036D000B2015FDA85E093E050DA6CE07FEF8FEFC4
:1036E0009FEFF4DBC501BB0CAA0BBB0BBC0155273C
:1036F0004427C601A0E0B0E06A017B01C82AD92AAC
:10370000EA2AFB2AC701B601E1DB69E170E080E04B
:1037100096E0DCDBF80101900020E9F7AF01401BE7
:10372000510B60E070E0C801E2DC60960FB6F894DF
:10373000DEBF0FBECDBFDF91CF911F910F91FF90E4
:10374000EF90DF90CF90BF90AF907F906F905F90A1
:103750004F90089561E0FC0180815BCA8EBD00003E
:103760000DB407FEFDCF8EB508951F93CF93DF9361
:10377000EA01162F60E0FC0180814BDA812FEEDF39
:103780008D2FECDF8C2FEADF80E0DF91CF911F914E
:10379000E5CFCF93DF93CDB7DEB72C970FB6F89474
:1037A000DEBF0FBECDBF789484B5826084BD84B582
:1037B000816084BD85B5826085BD85B5816085BD2C
:1037C00080916E00816080936E00109281008091E4
:1037D000810082608093810080918100816080936C
:1037E0008100809180008160809380008091B10091
:1037F00084608093B1008091B00081608093B000BC
:10380000809191008260809391008091910081600D
:1038100080939100809190008160809390008091CE
:10382000A10082608093A1008091A10081608093BB
:10383000A1008091A00081608093A000809121016F
:103840008260809321018091210181608093210118
:103850008091200181608093200180917A008460B2
:1038600080937A0080917A00826080937A008091C0
:103870007A00816080937A0080917A0080688093DA
:103880007A001092C100E0912503F091260382E0B6
:103890008083E0912103F09122031082E0912303C1
:1038A000F09124038FEC808310922D03E091290383
:1038B000F0912A0386E08083E0912703F0912803AA
:1038C000808180618083E0912703F09128038081CB
:1038D00088608083E0912703F091280380818068CD
:1038E0008083E0912703F091280380818F7D80837E
:1038F00061E080912C025ADC61E080913C0256DC50
:1039000061E080912E0252DC61E080913E024EDC4B
:1039100061E080910C024ADC61E080911C0246DC8F
:1039200061E080910E0242DC61E080911E023EDC8B
:103930008AE892E022D961E08091B40337DC61E04B
:103940008091B40366D98091BA039091BB038F3FF5
:103950002FEF920711F060E029DC61E08091B20363
:1039600025DC61E08091B20354D91FB7F8948091AF
:103970000A03811123C0E1E7F1E08491E7EBF1E074
:103980009491E82FF0E0EE0FFF1FE85FFE4FA59146
:10399000B491EC91E92319F461E085E33AD961E04F
:1039A00085E304DC8CB580618CBD8CB580648CBDF6
:1039B00061E084E3FBDB61E083E3F8DB80910A03F1
:1039C0008F5F80930A031FBF9AD88CB58F7D8CBD03
:1039D0008CB5837F8CBD61E08091B4031AD95AD82D
:1039E00060E08091B40315D955D861E08091B403AB
:1039F00010D950D88CE0E0E4F2E0DE01119601909D
:103A00000D928A95E1F77BD860E070E0CB017ED81B
:103A100041D840D860E070E080E190E078D98E0134
:103A20000F5F1F4F7E018DE0E80EF11CF8018191C0
:103A30008F0194DE0E151F05C9F782EB93E08ADE35
:103A400042E060E574E280E190E074D91092BF0337
:103A50001092BE038CEF9FE09093C1038093C0034C
:103A600040E050E068E474E280E190E06CD94AE024
:103A700050E06CE474E280E190E065D94CE050E005
:103A800060E474E280E190E05ED944E251E06CE3EE
:103A900074E280E190E057D940E050E064E374E2E2
:103AA00080E190E050D949E250E068E374E280E1BF
:103AB00090E049D94BE250E06CE274E280E190E0A2
:103AC00042D944E252E068E274E280E190E03BD9FE
:103AD00040EE51E060E374E280E190E034D940E1EF
:103AE00051E064E474E280E190E02DD941E050E0DF
:103AF00068E674E280E190E026D940E050E060E6BC
:103B000074E280E190E01FD945E050E06CE674E299
:103B100080E190E018D960E070E084E490E00E94D9
:103B200086150E944A150E947F150E944A1540E0A2
:103B300050E06CE070E082EB93E017DE80E00EDE98
:103B4000A82E80E00BDEB82E80E008DE082F80E093
:103B500005DE182F82EB93E0FDDD65017801F8E0CA
:103B6000CF16F1E0DF06EF06F10469F080EA92E09B
:103B70000E94AC1540E1C701B6010BD887E892E07E
:103B80000E94AC154EC087E08093BC036CE874E2E1
:103B900080E190E00E948615482F40686CE874E24E
:103BA00080E190E0C7D8DD24D394D092BD036CE8C7
:103BB00074E280E190E00E948615482F42606CE834
:103BC00074E280E190E0B6D801E010E07801009066
:103BD000BC0302C0EE0CFF1C0A94E2F760E974E239
:103BE00080E190E00E948615482F4E2960E974E23A
:103BF00080E190E09FD80090BD0302C0000F111F2C
:103C00000A94E2F760E974E280E190E00E94861590
:103C1000482F402B60E974E280E190E08BD8D0928D
:103C20000B0387EB92E00E94BD1580910B03882364
:103C300041F18091C203882321F12FB7F89480913C
:103C40000D0390910E03A0910F03B09110032FBFAD
:103C50004091C3035091C4036091C5037091C603A2
:103C6000841B950BA60BB70B4091C7035091C8035B
:103C70006091C9037091CA0384179507A607B70717
:103C800010F4FBDAD2CF2FB7F89480910D03909106
:103C90000E03A0910F03B09110032FBF8093C303B5
:103CA0009093C403A093C503B093C603E091CB03E4
:103CB000F091CC031995E5CFE5E1F3E01382128290
:103CC00088EE93E0A0E0B0E084839583A683B78379
:103CD00020E532E03183208325EC30E035872487EE
:103CE00024EC30E03787268720EC30E0318B208BC6
:103CF00021EC30E0338B228B22EC30E0358B248BAF
:103D000026EC30E0378B268B118E128E138E148E9C
:103D1000EDECF3E01382128284839583A683B7834C
:103D200022E632E031832083E2ECF3E021E02083DD
:103D3000118212821382148285839683A783B087AF
:103D40008AE391E092878187E2EBF3E0118288E0D9
:103D500082831482158216821782158614868CEF50
:103D60009FE09787868787E08287238713828AE090
:103D7000808389E090E0918780870895BB274A304F
:103D800031F4992322F4BDE2909581959F4F01C0B3
:103D9000BB27FB015527AA27880F991FAA1FA41725
:103DA00010F0A41B83955051B9F7A05DAA3308F019
:103DB000A95DA193009779F7B111B1931192CB014D
:103DC00000C0DC01FC01672F71917723E1F7329786
:103DD00004C07C916D9370836291AE17BF07C8F3E6
:103DE00008955058BB27AA270ED0E5C0D6D030F092
:103DF000DBD020F031F49F3F11F41EF4CBC00EF461
:103E0000E095E7FBC1C0E92FE7D080F3BA1762075E
:103E100073078407950718F071F49EF5FFC00EF440
:103E2000E0950B2EBA2FA02D0B01B90190010C01CA
:103E3000CA01A0011124FF27591B99F0593F50F4E2
:103E4000503E68F11A16F040A22F232F342F44273A
:103E5000585FF3CF469537952795A795F040539532
:103E6000C9F77EF41F16BA0B620B730B840BBAF002
:103E70009150A1F0FF0FBB1F661F771F881FC2F76D
:103E80000EC0BA0F621F731F841F48F48795779581
:103E90006795B795F7959E3F08F0B3CF9395880F38
:103EA00008F09927EE0F97958795089504D06894A8
:103EB000B111B5C0089598D088F09F5790F0B92FF0
:103EC0009927B751A0F0D1F0660F771F881F991F6F
:103ED0001AF0BA95C9F712C0B13081F09FD0B1E0A5
:103EE00008959CC0672F782F8827B85F39F0B93FB5
:103EF000CCF3869577956795B395D9F73EF4909571
:103F00008095709561957F4F8F4F9F4F0895E894EE
:103F100009C097FB3EF490958095709561957F4F11
:103F20008F4F9F4F9923A9F0F92F96E9BB279395BF
:103F3000F695879577956795B795F111F8CFFAF4CF
:103F4000BB0F11F460FF1BC06F5F7F4F8F4F9F4F00
:103F500016C0882311F096E911C0772321F09EE85E
:103F6000872F762F05C0662371F096E8862F70E0C4
:103F700060E02AF09A95660F771F881FDAF7880F9E
:103F80009695879597F9089597F99F6780E870E06F
:103F900060E008959FEF80EC089500240A941616BF
:103FA000170618060906089500240A941216130627
:103FB000140605060895092E0394000C11F48823B5
:103FC00052F0BB0F40F4BF2B11F460FF04C06F5FD1
:103FD0007F4F8F4F9F4F089557FD9058440F551FA7
:103FE00059F05F3F71F04795880F97FB991F61F07B
:103FF0009F3F79F087950895121613061406551FF2
:10400000F2CF4695F1DF08C0161617061806991F5D
:10401000F1CF86957105610508940895E894BB2752
:1040200066277727CB0197F908950BD0C4CFB5DF6A
:1040300028F0BADF18F0952309F0A6CFABCF1124F2
:10404000EECFCADFA0F3959FD1F3950F50E0551F37
:10405000629FF001729FBB27F00DB11D639FAA27DD
:10406000F00DB11DAA1F649F6627B00DA11D661F2C
:10407000829F2227B00DA11D621F739FB00DA11D4D
:10408000621F839FA00D611D221F749F3327A00D07
:10409000611D231F849F600D211D822F762F6A2FA3
:1040A00011249F5750408AF0E1F088234AF0EE0F28
:1040B000FF1FBB1F661F771F881F91505040A9F735
:1040C0009E3F510570F060CFAACF5F3FECF3983E62
:1040D000DCF3869577956795B795F795E7959F5F9C
:1040E000C1F7FE2B880F911D9695879597F9089536
:1040F000A1E21A2EAA1BBB1BFD010DC0AA1FBB1FEC
:10410000EE1FFF1FA217B307E407F50720F0A21B5D
:10411000B30BE40BF50B661F771F881F991F1A94CA
:1041200069F760957095809590959B01AC01BD01F4
:10413000CF010895EE0FFF1F881F8BBF0790F691E8
:10414000E02D199481E090E0F89400C0F894FFCF3E
:10415000CB02400000000000000000002700290002
:10416000D702410000000000000000002B002D00DD
:10417000E5023E0000000000000000001F002100DA
:10418000F2023F00000000000000000023002500B4
:1041900000000002070000260000000000000000F0
:1041A0000F14A913D3135B143119E213F613000093
:1041B0000000BF19B519D019A719AE19AB19A81964
:1041C00044726976650053706F7274004F626A655D
:1041D0006374004D6178000D0A002D2D53746172D7
:1041E00074204170706C69636174696F6E2D2D006D
:1041F0004572726F7220696E20636869702069640D
:10420000207265616420002D2D456E642041707020
:104210006C69636174696F6E2D2D004472697665F7
:1042200072205265617200506173656E676572201D
:1042300052656172004472697665722046726F6ED3
:10424000740050617373656E6765722046726F6E9D
:0A42500074003A200020707369002A
:00000001FF
